{
  "address": "0x622940CE413F799b63566c3ebc185eC2Bc1951D8",
  "abi": [
    {
      "inputs": [],
      "stateMutability": "nonpayable",
      "type": "constructor"
    },
    {
      "anonymous": false,
      "inputs": [
        {
          "indexed": true,
          "internalType": "address",
          "name": "parent",
          "type": "address"
        },
        {
          "indexed": true,
          "internalType": "address",
          "name": "child",
          "type": "address"
        }
      ],
      "name": "ChildAdded",
      "type": "event"
    },
    {
      "anonymous": false,
      "inputs": [
        {
          "indexed": false,
          "internalType": "address",
          "name": "oldAddr",
          "type": "address"
        },
        {
          "indexed": false,
          "internalType": "address",
          "name": "newAddr",
          "type": "address"
        }
      ],
      "name": "ChildAddrChanged",
      "type": "event"
    },
    {
      "anonymous": false,
      "inputs": [
        {
          "indexed": true,
          "internalType": "address",
          "name": "parent",
          "type": "address"
        },
        {
          "indexed": true,
          "internalType": "address",
          "name": "child",
          "type": "address"
        }
      ],
      "name": "ChildRemoved",
      "type": "event"
    },
    {
      "anonymous": false,
      "inputs": [
        {
          "indexed": false,
          "internalType": "uint256",
          "name": "amount",
          "type": "uint256"
        }
      ],
      "name": "CoinWithdrawed",
      "type": "event"
    },
    {
      "anonymous": false,
      "inputs": [
        {
          "indexed": false,
          "internalType": "bool",
          "name": "active",
          "type": "bool"
        },
        {
          "indexed": false,
          "internalType": "uint256",
          "name": "ceiling",
          "type": "uint256"
        },
        {
          "indexed": true,
          "internalType": "address",
          "name": "child",
          "type": "address"
        }
      ],
      "name": "ConfigChanged",
      "type": "event"
    },
    {
      "anonymous": false,
      "inputs": [
        {
          "indexed": false,
          "internalType": "uint256",
          "name": "timestamp",
          "type": "uint256"
        },
        {
          "indexed": true,
          "internalType": "address",
          "name": "parent",
          "type": "address"
        },
        {
          "indexed": false,
          "internalType": "uint256",
          "name": "amount",
          "type": "uint256"
        },
        {
          "indexed": true,
          "internalType": "address",
          "name": "child",
          "type": "address"
        }
      ],
      "name": "FundsAdded",
      "type": "event"
    },
    {
      "anonymous": false,
      "inputs": [
        {
          "indexed": false,
          "internalType": "uint256",
          "name": "timestamp",
          "type": "uint256"
        },
        {
          "indexed": true,
          "internalType": "address",
          "name": "child",
          "type": "address"
        },
        {
          "indexed": false,
          "internalType": "uint256",
          "name": "amount",
          "type": "uint256"
        }
      ],
      "name": "FundsClaimed",
      "type": "event"
    },
    {
      "anonymous": false,
      "inputs": [
        {
          "indexed": true,
          "internalType": "address",
          "name": "parent",
          "type": "address"
        },
        {
          "indexed": false,
          "internalType": "uint256",
          "name": "amount",
          "type": "uint256"
        },
        {
          "indexed": false,
          "internalType": "address",
          "name": "child",
          "type": "address"
        }
      ],
      "name": "FundsWithdrawn",
      "type": "event"
    },
    {
      "anonymous": false,
      "inputs": [
        {
          "indexed": false,
          "internalType": "uint8",
          "name": "version",
          "type": "uint8"
        }
      ],
      "name": "Initialized",
      "type": "event"
    },
    {
      "anonymous": false,
      "inputs": [
        {
          "indexed": true,
          "internalType": "address",
          "name": "oldAddr",
          "type": "address"
        },
        {
          "indexed": false,
          "internalType": "address",
          "name": "newAddr",
          "type": "address"
        }
      ],
      "name": "ParentChanged",
      "type": "event"
    },
    {
      "anonymous": false,
      "inputs": [
        {
          "indexed": true,
          "internalType": "bytes32",
          "name": "role",
          "type": "bytes32"
        },
        {
          "indexed": true,
          "internalType": "bytes32",
          "name": "previousAdminRole",
          "type": "bytes32"
        },
        {
          "indexed": true,
          "internalType": "bytes32",
          "name": "newAdminRole",
          "type": "bytes32"
        }
      ],
      "name": "RoleAdminChanged",
      "type": "event"
    },
    {
      "anonymous": false,
      "inputs": [
        {
          "indexed": true,
          "internalType": "bytes32",
          "name": "role",
          "type": "bytes32"
        },
        {
          "indexed": true,
          "internalType": "address",
          "name": "account",
          "type": "address"
        },
        {
          "indexed": true,
          "internalType": "address",
          "name": "sender",
          "type": "address"
        }
      ],
      "name": "RoleGranted",
      "type": "event"
    },
    {
      "anonymous": false,
      "inputs": [
        {
          "indexed": true,
          "internalType": "bytes32",
          "name": "role",
          "type": "bytes32"
        },
        {
          "indexed": true,
          "internalType": "address",
          "name": "account",
          "type": "address"
        },
        {
          "indexed": true,
          "internalType": "address",
          "name": "sender",
          "type": "address"
        }
      ],
      "name": "RoleRevoked",
      "type": "event"
    },
    {
      "anonymous": false,
      "inputs": [
        {
          "indexed": true,
          "internalType": "address",
          "name": "token",
          "type": "address"
        },
        {
          "indexed": false,
          "internalType": "uint256",
          "name": "amount",
          "type": "uint256"
        }
      ],
      "name": "TokenWithdrawed",
      "type": "event"
    },
    {
      "stateMutability": "payable",
      "type": "fallback"
    },
    {
      "inputs": [],
      "name": "DEFAULT_ADMIN_ROLE",
      "outputs": [
        {
          "internalType": "bytes32",
          "name": "",
          "type": "bytes32"
        }
      ],
      "stateMutability": "view",
      "type": "function"
    },
    {
      "inputs": [],
      "name": "WITHDRAW_ROLE",
      "outputs": [
        {
          "internalType": "bytes32",
          "name": "",
          "type": "bytes32"
        }
      ],
      "stateMutability": "view",
      "type": "function"
    },
    {
      "inputs": [],
      "name": "_trustedForwarder",
      "outputs": [
        {
          "internalType": "address",
          "name": "",
          "type": "address"
        }
      ],
      "stateMutability": "view",
      "type": "function"
    },
    {
      "inputs": [
        {
          "internalType": "uint256",
          "name": "ceiling",
          "type": "uint256"
        },
        {
          "internalType": "uint256",
          "name": "periodicity",
          "type": "uint256"
        },
        {
          "internalType": "address",
          "name": "child",
          "type": "address"
        }
      ],
      "name": "addChild",
      "outputs": [],
      "stateMutability": "nonpayable",
      "type": "function"
    },
    {
      "inputs": [
        {
          "internalType": "uint256",
          "name": "ceiling",
          "type": "uint256"
        },
        {
          "internalType": "uint256",
          "name": "periodicity",
          "type": "uint256"
        },
        {
          "internalType": "address",
          "name": "child",
          "type": "address"
        },
        {
          "internalType": "uint256",
          "name": "amount",
          "type": "uint256"
        }
      ],
      "name": "addChildAndFunds",
      "outputs": [],
      "stateMutability": "nonpayable",
      "type": "function"
    },
    {
      "inputs": [
        {
          "internalType": "uint256",
          "name": "amount",
          "type": "uint256"
        },
        {
          "internalType": "address",
          "name": "child",
          "type": "address"
        }
      ],
      "name": "addFunds",
      "outputs": [],
      "stateMutability": "nonpayable",
      "type": "function"
    },
    {
      "inputs": [],
      "name": "baseToken",
      "outputs": [
        {
          "internalType": "address",
          "name": "",
          "type": "address"
        }
      ],
      "stateMutability": "view",
      "type": "function"
    },
    {
      "inputs": [
        {
          "internalType": "address",
          "name": "oldAddr",
          "type": "address"
        },
        {
          "internalType": "address",
          "name": "newAddr",
          "type": "address"
        }
      ],
      "name": "changeChildAddress",
      "outputs": [],
      "stateMutability": "nonpayable",
      "type": "function"
    },
    {
      "inputs": [
        {
          "internalType": "uint256",
          "name": "ceiling",
          "type": "uint256"
        },
        {
          "internalType": "uint256",
          "name": "periodicity",
          "type": "uint256"
        },
        {
          "internalType": "address",
          "name": "child",
          "type": "address"
        }
      ],
      "name": "changeConfig",
      "outputs": [],
      "stateMutability": "nonpayable",
      "type": "function"
    },
    {
      "inputs": [
        {
          "internalType": "address",
          "name": "newAddr",
          "type": "address"
        }
      ],
      "name": "changeParentAddr",
      "outputs": [],
      "stateMutability": "nonpayable",
      "type": "function"
    },
    {
      "inputs": [
        {
          "internalType": "address",
          "name": "",
          "type": "address"
        }
      ],
      "name": "childToConfig",
      "outputs": [
        {
          "internalType": "bool",
          "name": "active",
          "type": "bool"
        },
        {
          "internalType": "uint256",
          "name": "balance",
          "type": "uint256"
        },
        {
          "internalType": "uint256",
          "name": "ceiling",
          "type": "uint256"
        },
        {
          "internalType": "uint256",
          "name": "lastClaim",
          "type": "uint256"
        },
        {
          "internalType": "uint256",
          "name": "periodicity",
          "type": "uint256"
        },
        {
          "internalType": "address",
          "name": "parent",
          "type": "address"
        }
      ],
      "stateMutability": "view",
      "type": "function"
    },
    {
      "inputs": [
        {
          "internalType": "uint256",
          "name": "",
          "type": "uint256"
        }
      ],
      "name": "childrenList",
      "outputs": [
        {
          "internalType": "address",
          "name": "",
          "type": "address"
        }
      ],
      "stateMutability": "view",
      "type": "function"
    },
    {
      "inputs": [],
      "name": "claim",
      "outputs": [],
      "stateMutability": "nonpayable",
      "type": "function"
    },
    {
      "inputs": [
        {
          "internalType": "address",
          "name": "child",
          "type": "address"
        }
      ],
      "name": "computeClaimable",
      "outputs": [
        {
          "internalType": "uint256",
          "name": "",
          "type": "uint256"
        }
      ],
      "stateMutability": "view",
      "type": "function"
    },
    {
      "inputs": [
        {
          "internalType": "address",
          "name": "parent",
          "type": "address"
        }
      ],
      "name": "getNumberChildren",
      "outputs": [
        {
          "internalType": "uint256",
          "name": "",
          "type": "uint256"
        }
      ],
      "stateMutability": "view",
      "type": "function"
    },
    {
      "inputs": [
        {
          "internalType": "bytes32",
          "name": "role",
          "type": "bytes32"
        }
      ],
      "name": "getRoleAdmin",
      "outputs": [
        {
          "internalType": "bytes32",
          "name": "",
          "type": "bytes32"
        }
      ],
      "stateMutability": "view",
      "type": "function"
    },
    {
      "inputs": [
        {
          "internalType": "bytes32",
          "name": "role",
          "type": "bytes32"
        },
        {
          "internalType": "address",
          "name": "account",
          "type": "address"
        }
      ],
      "name": "grantRole",
      "outputs": [],
      "stateMutability": "nonpayable",
      "type": "function"
    },
    {
      "inputs": [
        {
          "internalType": "bytes32",
          "name": "role",
          "type": "bytes32"
        },
        {
          "internalType": "address",
          "name": "account",
          "type": "address"
        }
      ],
      "name": "hasRole",
      "outputs": [
        {
          "internalType": "bool",
          "name": "",
          "type": "bool"
        }
      ],
      "stateMutability": "view",
      "type": "function"
    },
    {
      "inputs": [
        {
          "internalType": "address",
          "name": "token",
          "type": "address"
        },
        {
          "internalType": "address",
          "name": "trustedForwarder",
          "type": "address"
        }
      ],
      "name": "initialize",
      "outputs": [],
      "stateMutability": "nonpayable",
      "type": "function"
    },
    {
      "inputs": [
        {
          "internalType": "address",
          "name": "forwarder",
          "type": "address"
        }
      ],
      "name": "isTrustedForwarder",
      "outputs": [
        {
          "internalType": "bool",
          "name": "",
          "type": "bool"
        }
      ],
      "stateMutability": "view",
      "type": "function"
    },
    {
      "inputs": [],
      "name": "newFx",
      "outputs": [
        {
          "internalType": "uint256",
          "name": "",
          "type": "uint256"
        }
      ],
      "stateMutability": "pure",
      "type": "function"
    },
    {
      "inputs": [
        {
          "internalType": "address",
          "name": "",
          "type": "address"
        },
        {
          "internalType": "uint256",
          "name": "",
          "type": "uint256"
        }
      ],
      "name": "parentToChildren",
      "outputs": [
        {
          "internalType": "address",
          "name": "",
          "type": "address"
        }
      ],
      "stateMutability": "view",
      "type": "function"
    },
    {
      "inputs": [
        {
          "internalType": "address",
          "name": "child",
          "type": "address"
        }
      ],
      "name": "removeChild",
      "outputs": [],
      "stateMutability": "nonpayable",
      "type": "function"
    },
    {
      "inputs": [
        {
          "internalType": "bytes32",
          "name": "role",
          "type": "bytes32"
        },
        {
          "internalType": "address",
          "name": "account",
          "type": "address"
        }
      ],
      "name": "renounceRole",
      "outputs": [],
      "stateMutability": "nonpayable",
      "type": "function"
    },
    {
      "inputs": [],
      "name": "resetAll",
      "outputs": [],
      "stateMutability": "nonpayable",
      "type": "function"
    },
    {
      "inputs": [
        {
          "internalType": "bytes32",
          "name": "role",
          "type": "bytes32"
        },
        {
          "internalType": "address",
          "name": "account",
          "type": "address"
        }
      ],
      "name": "revokeRole",
      "outputs": [],
      "stateMutability": "nonpayable",
      "type": "function"
    },
    {
      "inputs": [
        {
          "internalType": "bool",
          "name": "active",
          "type": "bool"
        },
        {
          "internalType": "address",
          "name": "child",
          "type": "address"
        }
      ],
      "name": "setActive",
      "outputs": [],
      "stateMutability": "nonpayable",
      "type": "function"
    },
    {
      "inputs": [
        {
          "internalType": "address",
          "name": "trustedForwarder",
          "type": "address"
        }
      ],
      "name": "setTrustedForwarder",
      "outputs": [],
      "stateMutability": "nonpayable",
      "type": "function"
    },
    {
      "inputs": [
        {
          "internalType": "bytes4",
          "name": "interfaceId",
          "type": "bytes4"
        }
      ],
      "name": "supportsInterface",
      "outputs": [
        {
          "internalType": "bool",
          "name": "",
          "type": "bool"
        }
      ],
      "stateMutability": "view",
      "type": "function"
    },
    {
      "inputs": [
        {
          "internalType": "uint256",
          "name": "amount",
          "type": "uint256"
        }
      ],
      "name": "withdrawCoin",
      "outputs": [],
      "stateMutability": "nonpayable",
      "type": "function"
    },
    {
      "inputs": [
        {
          "internalType": "uint256",
          "name": "amount",
          "type": "uint256"
        },
        {
          "internalType": "address",
          "name": "child",
          "type": "address"
        }
      ],
      "name": "withdrawFundsFromChild",
      "outputs": [],
      "stateMutability": "nonpayable",
      "type": "function"
    },
    {
      "stateMutability": "payable",
      "type": "receive"
    }
  ],
  "transactionHash": "0x847a35e38bd2170fc08faa4b094502c748122197bc63c6e384f1f65fc58d4e39",
  "args": [],
  "numDeployments": 1,
  "solcInputHash": "cdaff7b2a77b08240ddadaf7b8793fb6",
  "bytecode": "0x608060405234801561001057600080fd5b50609780546001600160a01b03191690556132f4806100306000396000f3fe6080604052600436106101dc5760003560e01c8063572b6c0511610102578063a4e5320e11610095578063da74222811610064578063da74222814610644578063e02023a114610664578063e103aef514610686578063f8ab02131461069b576101e3565b8063a4e5320e146105c4578063bdf5f6e8146105e4578063c55dae6314610604578063d547741f14610624576101e3565b806391d14854116100d157806391d148541461054f57806392a331ca1461056f5780639873f2621461058f578063a217fddf146105af576101e3565b8063572b6c05146104c057806383dffa84146104ef57806387084cbc1461050f5780638bfb4ada1461052f576101e3565b8063377f7cb11161017a5780634e71d92d116101495780634e71d92d146104355780634eb264e81461044a5780635004128b1461046a57806356c022bb146104a0576101e3565b8063377f7cb1146103405780633db1658a146103d557806341a7c55b146103f5578063485cc95514610415576101e3565b8063248a9ca3116101b6578063248a9ca3146102a25780632bf37c42146102e05780632f2ff15d1461030057806336568abe14610320576101e3565b806301ffc9a7146102155780630f9b8f681461024a57806312a39db214610282576101e3565b366101e357005b6102136040518060400160405280600f81526020016e6f75616973206d6120677565756c6560881b8152506106af565b005b34801561022157600080fd5b50610235610230366004612db1565b6106f5565b60405190151581526020015b60405180910390f35b34801561025657600080fd5b5061026a610265366004612ddb565b61072c565b6040516001600160a01b039091168152602001610241565b34801561028e57600080fd5b5061021361029d366004612e10565b610756565b3480156102ae57600080fd5b506102d26102bd366004612ddb565b60009081526065602052604090206001015490565b604051908152602001610241565b3480156102ec57600080fd5b506102136102fb366004612e2b565b610b20565b34801561030c57600080fd5b5061021361031b366004612e2b565b610d13565b34801561032c57600080fd5b5061021361033b366004612e2b565b610d3d565b34801561034c57600080fd5b5061039d61035b366004612e10565b60cc6020526000908152604090208054600182015460028301546003840154600485015460059095015460ff909416949293919290916001600160a01b031686565b604080519615158752602087019590955293850192909252606084015260808301526001600160a01b031660a082015260c001610241565b3480156103e157600080fd5b506102136103f0366004612e10565b610dcb565b34801561040157600080fd5b5061026a610410366004612e57565b610fda565b34801561042157600080fd5b50610213610430366004612e81565b611012565b34801561044157600080fd5b50610213611179565b34801561045657600080fd5b50610213610465366004612ddb565b6113d7565b34801561047657600080fd5b506102d2610485366004612e10565b6001600160a01b0316600090815260cb602052604090205490565b3480156104ac57600080fd5b5060975461026a906001600160a01b031681565b3480156104cc57600080fd5b506102356104db366004612e10565b6097546001600160a01b0391821691161490565b3480156104fb57600080fd5b5061021361050a366004612eb9565b611470565b34801561051b57600080fd5b5061021361052a366004612ed7565b611600565b34801561053b57600080fd5b5061021361054a366004612f14565b611621565b34801561055b57600080fd5b5061023561056a366004612e2b565b61196b565b34801561057b57600080fd5b506102d261058a366004612e10565b611996565b34801561059b57600080fd5b506102136105aa366004612e81565b611a77565b3480156105bb57600080fd5b506102d2600081565b3480156105d057600080fd5b506102136105df366004612e2b565b611e6b565b3480156105f057600080fd5b506102136105ff366004612f14565b6120d5565b34801561061057600080fd5b5060ca5461026a906001600160a01b031681565b34801561063057600080fd5b5061021361063f366004612e2b565b612313565b34801561065057600080fd5b5061021361065f366004612e10565b612338565b34801561067057600080fd5b506102d260008051602061329f83398151915281565b34801561069257600080fd5b50610213612373565b3480156106a757600080fd5b50600c6102d2565b6106f2816040516024016106c39190612f75565b60408051601f198184030181529190526020810180516001600160e01b031663104c13eb60e21b17905261240f565b50565b60006001600160e01b03198216637965db0b60e01b148061072657506301ffc9a760e01b6001600160e01b03198316145b92915050565b60cd818154811061073c57600080fd5b6000918252602090912001546001600160a01b0316905081565b61075e612430565b816001600160a01b03811661078e5760405162461bcd60e51b815260040161078590612fa8565b60405180910390fd5b6001600160a01b0381166107b45760405162461bcd60e51b815260040161078590612fdd565b6001600160a01b038216600090815260cb6020526040812054815b8181101561083c576001600160a01b03858116600090815260cb60205260409020805491861691839081106108065761080661301e565b6000918252602090912001546001600160a01b0316141561082a576001925061083c565b806108348161304a565b9150506107cf565b5060018215151461085f5760405162461bcd60e51b815260040161078590613065565b6001600160a01b03838116600090815260cc602052604090206005015481169085161461089e5760405162461bcd60e51b8152600401610785906130a6565b6001600160a01b03808616600090815260cc60209081526040808320815160c081018352815460ff1615158152600182015481850152600282015481840152600382015460608201526004820154608082015260059091015490941660a08501819052835260cb909152812054905b81811015610a635760a08301516001600160a01b03908116600090815260cb602052604090208054918a1691839081106109495761094961301e565b6000918252602090912001546001600160a01b03161415610a515760a08301516001600160a01b0316600090815260cb6020526040902061098b6001846130e8565b8154811061099b5761099b61301e565b600091825260208083209091015460a08601516001600160a01b03908116845260cb90925260409092208054919092169190839081106109dd576109dd61301e565b600091825260208083209190910180546001600160a01b0319166001600160a01b0394851617905560a0860151909216815260cb90915260409020610a236001846130e8565b81548110610a3357610a3361301e565b600091825260209091200180546001600160a01b0319169055610a63565b80610a5b8161304a565b91505061090d565b50610a99610a6f612430565b6001600160a01b03808a16600090815260cc602052604090206001015460ca54909116919061243f565b6001600160a01b03808816600081815260cc6020526040808220805460ff191681556001810183905560028101839055600381018390556004810183905560050180546001600160a01b031916905560a08601519051929316917fd5987086ef0ea0ec23ef7cd2dc39a293271a5501e3b5e05db7ef8b7771fe71739190a350505050505050565b610b28612430565b816001600160a01b038116610b4f5760405162461bcd60e51b815260040161078590612fa8565b6001600160a01b038116610b755760405162461bcd60e51b815260040161078590612fdd565b6001600160a01b038216600090815260cb6020526040812054815b81811015610bfd576001600160a01b03858116600090815260cb6020526040902080549186169183908110610bc757610bc761301e565b6000918252602090912001546001600160a01b03161415610beb5760019250610bfd565b80610bf58161304a565b915050610b90565b50600182151514610c205760405162461bcd60e51b815260040161078590613065565b6001600160a01b03838116600090815260cc6020526040902060050154811690851614610c5f5760405162461bcd60e51b8152600401610785906130a6565b610c7e610c6a612430565b60ca546001600160a01b03169030896124a2565b6001600160a01b038516600090815260cc602052604081206001018054889290610ca99084906130ff565b90915550506001600160a01b038516610cc0612430565b6001600160a01b03167f51c280b8ead4e2136d2f038ca132c390a056c89a71411b134217209d3b9eccf84289604051610d03929190918252602082015260400190565b60405180910390a3505050505050565b600082815260656020526040902060010154610d2e816124da565b610d3883836124eb565b505050565b610d45612430565b6001600160a01b0316816001600160a01b031614610dbd5760405162461bcd60e51b815260206004820152602f60248201527f416363657373436f6e74726f6c3a2063616e206f6e6c792072656e6f756e636560448201526e103937b632b9903337b91039b2b63360891b6064820152608401610785565b610dc78282612572565b5050565b806001600160a01b0316610ddd612430565b6001600160a01b03161415610e4b5760405162461bcd60e51b815260206004820152602e60248201527f216368616e6765506172656e7441646472203a2063616e6e6f74206368616e6760448201526d32903a379039b0b6b29030b2323960911b6064820152608401610785565b600060cb6000610e59612430565b6001600160a01b0316815260208101919091526040016000908120805490925090610e85600183613117565b90505b60008112610f89578360cc6000858481548110610ea757610ea761301e565b6000918252602080832091909101546001600160a01b039081168452838201949094526040928301822060050180546001600160a01b03191695851695909517909455918716825260cb909252208354849083908110610f0957610f0961301e565b60009182526020808320909101548354600181018555938352912090910180546001600160a01b0319166001600160a01b039092169190911790558254839080610f5557610f55613156565b600082815260209020810160001990810180546001600160a01b031916905501905580610f818161316c565b915050610e88565b50610f92612430565b6040516001600160a01b03858116825291909116907fc9e4c719f349d4c91a37138eb5cf0ba2670c592a764f8c0b18c603ba9178cc1d906020015b60405180910390a2505050565b60cb6020528160005260406000208181548110610ff657600080fd5b6000918252602090912001546001600160a01b03169150829050565b600054610100900460ff16158080156110325750600054600160ff909116105b8061104c5750303b15801561104c575060005460ff166001145b6110af5760405162461bcd60e51b815260206004820152602e60248201527f496e697469616c697a61626c653a20636f6e747261637420697320616c72656160448201526d191e481a5b9a5d1a585b1a5e995960921b6064820152608401610785565b6000805460ff1916600117905580156110d2576000805461ff0019166101001790555b60ca80546001600160a01b0319166001600160a01b0385161790556110f56125f7565b61111460008051602061329f83398151915261110f612430565b612662565b609780546001600160a01b0319166001600160a01b0384161790558015610d38576000805461ff0019169055604051600181527f7f26b83ff96e1f2b6a682f133852f6798a09c465da95921460cefb38474024989060200160405180910390a1505050565b600060cc6000611187612430565b6001600160a01b031681526020810191909152604001600020805490915060ff166111e95760405162461bcd60e51b815260206004820152601260248201527121636c61696d3a206e6f742061637469766560701b6044820152606401610785565b60008160010154116112345760405162461bcd60e51b815260206004820152601460248201527321636c61696d3a206e756c6c2062616c616e636560601b6044820152606401610785565b60cc6000611240612430565b6001600160a01b0316815260208101919091526040016000205460ff1615156001146112ae5760405162461bcd60e51b815260206004820152601b60248201527f21636c61696d3a206163636f756e7420697320696e61637469766500000000006044820152606401610785565b60006112bb61058a612430565b90508061130a5760405162461bcd60e51b815260206004820152601860248201527f21636c61696d3a206e6f7468696e6720746f20636c61696d00000000000000006044820152606401610785565b6000826004015483600301544261132191906130e8565b61132b919061318a565b905080836004015461133d91906131ac565b836003015461134c91906130ff565b83600301819055508183600101600082825461136891906130e8565b9091555061138c9050611379612430565b60ca546001600160a01b0316908461243f565b611394612430565b6001600160a01b03167fa4eb50103b0591feb0bc913f479d92af5eb7ea33e8c397b49bab52ce6af26cb54284604051610fcd929190918252602082015260400190565b60008051602061329f8339815191526113ef816124da565b816113f8574791505b611400612430565b6001600160a01b03166108fc839081150290604051600060405180830381858888f19350505050158015611438573d6000803e3d6000fd5b506040518281527f8c28a88e8e3205fc54a609713af8b746e7458f71b9705e2e04ea32cb89ca03129060200160405180910390a15050565b611478612430565b816001600160a01b03811661149f5760405162461bcd60e51b815260040161078590612fa8565b6001600160a01b0381166114c55760405162461bcd60e51b815260040161078590612fdd565b6001600160a01b038216600090815260cb6020526040812054815b8181101561154d576001600160a01b03858116600090815260cb60205260409020805491861691839081106115175761151761301e565b6000918252602090912001546001600160a01b0316141561153b576001925061154d565b806115458161304a565b9150506114e0565b506001821515146115705760405162461bcd60e51b815260040161078590613065565b6001600160a01b03838116600090815260cc60205260409020600501548116908516146115af5760405162461bcd60e51b8152600401610785906130a6565b6001600160a01b038516600090815260cc60205260409020805460ff1916871515908117825560ff161515600114156115f75760048101546115f190426130e8565b60038201555b50505050505050565b61160b848484611621565b801561161b5761161b8183610b20565b50505050565b6116516040518060400160405280600f81526020016e18591910da1a5b190818d85b1b1959608a1b8152506106af565b6001600160a01b0381166116a75760405162461bcd60e51b815260206004820152601a60248201527f216164644368696c643a2041646472657373206973206e756c6c0000000000006044820152606401610785565b6001600160a01b03818116600090815260cc602052604090206005015416156117215760405162461bcd60e51b815260206004820152602660248201527f216164644368696c643a204368696c64206164647265737320616c7265616479604482015265103a30b5b2b760d11b6064820152608401610785565b816117795760405162461bcd60e51b815260206004820152602260248201527f216164644368696c643a20706572696f6469636974792063616e6e6f74206265604482015261020360f41b6064820152608401610785565b6117b76040518060400160405280601781526020017f6164644368696c642070617373656420726571756972650000000000000000008152506106af565b6117fb6040518060c001604052806000151581526020016000815260200160008152602001600081526020016000815260200160006001600160a01b031681525090565b61180583426130e8565b60608201526040810184905260808101839052611820612430565b6001600160a01b0390811660a083019081526001808452848316600090815260cc602090815260408083208751815460ff1916901515178155918701519382019390935591850151600283015560608501516003830155608085015160048301559151600590910180546001600160a01b031916919093161790915560cb906118a7612430565b6001600160a01b0390811682526020808301939093526040909101600090812080546001818101835591835293822090930180549286166001600160a01b0319938416811790915560cd805494850181559091527f83978b4c69c48dd978ab43fe30f077615294f938fb7f936d9eb340e51ea7db2e909201805490911682179055611930612430565b6001600160a01b03167f50fea2e96d594d78d1380617b74e6f8ac1d275020bc08f95e6447c806bbd3d0860405160405180910390a350505050565b60009182526065602090815260408084206001600160a01b0393909316845291905290205460ff1690565b6001600160a01b03808216600090815260cc60209081526040808320815160c081018352815460ff161515815260018201549381019390935260028101549183019190915260038101546060830181905260048201546080840181905260059092015490941660a0830152919290914291611a1191906130ff565b1115611a205750600092915050565b60008160800151826060015142611a3791906130e8565b611a41919061318a565b90506000818360400151611a5591906131ac565b905082602001518110611a6c578260200151611a6e565b805b95945050505050565b611a7f612430565b826001600160a01b038116611aa65760405162461bcd60e51b815260040161078590612fa8565b6001600160a01b038116611acc5760405162461bcd60e51b815260040161078590612fdd565b6001600160a01b038216600090815260cb6020526040812054815b81811015611b54576001600160a01b03858116600090815260cb6020526040902080549186169183908110611b1e57611b1e61301e565b6000918252602090912001546001600160a01b03161415611b425760019250611b54565b80611b4c8161304a565b915050611ae7565b50600182151514611b775760405162461bcd60e51b815260040161078590613065565b6001600160a01b03838116600090815260cc6020526040902060050154811690851614611bb65760405162461bcd60e51b8152600401610785906130a6565b6001600160a01b03808716600090815260cc60208181526040808420815160c081018352815460ff16151581526001820154818501526002820154818401526003820154606082015260048201546080820152600591820154871660a08201528b87168652939092529092209091015490911615611c885760405162461bcd60e51b815260206004820152602960248201527f216368616e67654368696c64416464726573733a206368696c6420616c72656160448201526864792065786973747360b81b6064820152608401610785565b6001600160a01b03868116600090815260cc602090815260408083208551815460ff1916901515178155858301516001820155858201516002820155606086015160038201556080860151600482015560a0860151600590910180546001600160a01b0319169190951690811790945592825260cb905290812054905b81811015611dd25760a08301516001600160a01b03908116600090815260cb602052604090208054918b169183908110611d4157611d4161301e565b6000918252602090912001546001600160a01b03161415611dc05760a08301516001600160a01b0316600090815260cb60205260409020805489919083908110611d8d57611d8d61301e565b9060005260206000200160006101000a8154816001600160a01b0302191690836001600160a01b03160217905550611dd2565b80611dca8161304a565b915050611d05565b506001600160a01b03888116600081815260cc60209081526040808320805460ff191681556001810184905560028101849055600381018490556004810193909355600590920180546001600160a01b03191690558151928352928a16928201929092527facfe6eee67b2971dc75b29248e8defac47da9da570a2e5a8c8dc2e3f58eb5942910160405180910390a15050505050505050565b611e73612430565b816001600160a01b038116611e9a5760405162461bcd60e51b815260040161078590612fa8565b6001600160a01b038116611ec05760405162461bcd60e51b815260040161078590612fdd565b6001600160a01b038216600090815260cb6020526040812054815b81811015611f48576001600160a01b03858116600090815260cb6020526040902080549186169183908110611f1257611f1261301e565b6000918252602090912001546001600160a01b03161415611f365760019250611f48565b80611f408161304a565b915050611edb565b50600182151514611f6b5760405162461bcd60e51b815260040161078590613065565b6001600160a01b03838116600090815260cc6020526040902060050154811690851614611faa5760405162461bcd60e51b8152600401610785906130a6565b6001600160a01b038516600090815260cc6020526040902060018101548088111561202e5760405162461bcd60e51b815260206004820152602e60248201527f21776974686472617746756e647346726f6d4368696c643a20616d6f756e742060448201526d3e206368696c6442616c616e636560901b6064820152608401610785565b87612037578097505b8782600101600082825461204b91906130e8565b9091555061206f905061205c612430565b60ca546001600160a01b0316908a61243f565b612077612430565b6001600160a01b03167fe9171aeff46c37ab955b8aff908e14ae9732bd06634fa131226cfe5c25bfd2fb89896040516120c39291909182526001600160a01b0316602082015260400190565b60405180910390a25050505050505050565b6120dd612430565b816001600160a01b0381166121045760405162461bcd60e51b815260040161078590612fa8565b6001600160a01b03811661212a5760405162461bcd60e51b815260040161078590612fdd565b6001600160a01b038216600090815260cb6020526040812054815b818110156121b2576001600160a01b03858116600090815260cb602052604090208054918616918390811061217c5761217c61301e565b6000918252602090912001546001600160a01b031614156121a057600192506121b2565b806121aa8161304a565b915050612145565b506001821515146121d55760405162461bcd60e51b815260040161078590613065565b6001600160a01b03838116600090815260cc60205260409020600501548116908516146122145760405162461bcd60e51b8152600401610785906130a6565b6122486040518060400160405280601381526020017218da185b99d950dbdb999a59c818d85b1b1959606a1b8152506106af565b6001600160a01b038516600090815260cc60205260409020866122bc5760405162461bcd60e51b815260206004820152602660248201527f216368616e6765436f6e6669673a20706572696f6469636974792063616e6e6f60448201526507420626520360d41b6064820152608401610785565b600281018890556004810187905580546040805160ff90921615158252602082018a90526001600160a01b038816917fcfaf6bc5c9fd62f4270a1249386d53b1bcbec1d17088280f29fb14fcb2099ab491016120c3565b60008281526065602052604090206001015461232e816124da565b610d388383612572565b60008051602061329f833981519152612350816124da565b50609780546001600160a01b0319166001600160a01b0392909216919091179055565b60005b60cd548110156124005760006001600160a01b031660cd828154811061239e5761239e61301e565b6000918252602090912001546001600160a01b031614156123be576123ee565b6123ee60cd82815481106123d4576123d461301e565b6000918252602090912001546001600160a01b031661266c565b806123f88161304a565b915050612376565b5061240d60cd6000612d7f565b565b80516a636f6e736f6c652e6c6f67602083016000808483855afa5050505050565b600061243a6128ea565b905090565b6040516001600160a01b038316602482015260448101829052610d3890849063a9059cbb60e01b906064015b60408051601f198184030181529190526020810180516001600160e01b03166001600160e01b031990931692909217909152612912565b6040516001600160a01b038085166024830152831660448201526064810182905261161b9085906323b872dd60e01b9060840161246b565b6106f2816124e6612430565b6129e4565b6124f5828261196b565b610dc75760008281526065602090815260408083206001600160a01b03851684529091529020805460ff1916600117905561252e612430565b6001600160a01b0316816001600160a01b0316837f2f8788117e7eff1d82e926ec794901d17c78024a50270940304540a733656f0d60405160405180910390a45050565b61257c828261196b565b15610dc75760008281526065602090815260408083206001600160a01b03851684529091529020805460ff191690556125b3612430565b6001600160a01b0316816001600160a01b0316837ff6391f5c32d9c69d2a47ea670b442974b53935d1edc7fd64eb21e047a839171b60405160405180910390a45050565b600054610100900460ff1661240d5760405162461bcd60e51b815260206004820152602b60248201527f496e697469616c697a61626c653a20636f6e7472616374206973206e6f74206960448201526a6e697469616c697a696e6760a81b6064820152608401610785565b610dc782826124eb565b6001600160a01b03808216600090815260cc60209081526040808320815160c081018352815460ff1615158152600182015481850152600282015481840152600382015460608201526004820154608082015260059091015490941660a08501819052835260cb909152812054905b818110156128315760a08301516001600160a01b03908116600090815260cb60205260409020805491861691839081106127175761271761301e565b6000918252602090912001546001600160a01b0316141561281f5760a08301516001600160a01b0316600090815260cb602052604090206127596001846130e8565b815481106127695761276961301e565b600091825260208083209091015460a08601516001600160a01b03908116845260cb90925260409092208054919092169190839081106127ab576127ab61301e565b600091825260208083209190910180546001600160a01b0319166001600160a01b0394851617905560a0860151909216815260cb909152604090206127f16001846130e8565b815481106128015761280161301e565b600091825260209091200180546001600160a01b0319169055612831565b806128298161304a565b9150506126db565b5061286761283d612430565b6001600160a01b03808616600090815260cc602052604090206001015460ca54909116919061243f565b6001600160a01b03808416600081815260cc6020526040808220805460ff191681556001810183905560028101839055600381018390556004810183905560050180546001600160a01b031916905560a08601519051929316917fd5987086ef0ea0ec23ef7cd2dc39a293271a5501e3b5e05db7ef8b7771fe71739190a3505050565b6097546000906001600160a01b031633141561290d575060131936013560601c90565b503390565b6000612967826040518060400160405280602081526020017f5361666545524332303a206c6f772d6c6576656c2063616c6c206661696c6564815250856001600160a01b0316612a3d9092919063ffffffff16565b805190915015610d38578080602001905181019061298591906131cb565b610d385760405162461bcd60e51b815260206004820152602a60248201527f5361666545524332303a204552433230206f7065726174696f6e20646964206e6044820152691bdd081cdd58d8d9595960b21b6064820152608401610785565b6129ee828261196b565b610dc7576129fb81612a54565b612a06836020612a66565b604051602001612a179291906131e8565b60408051601f198184030181529082905262461bcd60e51b825261078591600401612f75565b6060612a4c8484600085612c09565b949350505050565b60606107266001600160a01b03831660145b60606000612a758360026131ac565b612a809060026130ff565b67ffffffffffffffff811115612a9857612a9861325d565b6040519080825280601f01601f191660200182016040528015612ac2576020820181803683370190505b509050600360fc1b81600081518110612add57612add61301e565b60200101906001600160f81b031916908160001a905350600f60fb1b81600181518110612b0c57612b0c61301e565b60200101906001600160f81b031916908160001a9053506000612b308460026131ac565b612b3b9060016130ff565b90505b6001811115612bb3576f181899199a1a9b1b9c1cb0b131b232b360811b85600f1660108110612b6f57612b6f61301e565b1a60f81b828281518110612b8557612b8561301e565b60200101906001600160f81b031916908160001a90535060049490941c93612bac81613273565b9050612b3e565b508315612c025760405162461bcd60e51b815260206004820181905260248201527f537472696e67733a20686578206c656e67746820696e73756666696369656e746044820152606401610785565b9392505050565b606082471015612c6a5760405162461bcd60e51b815260206004820152602660248201527f416464726573733a20696e73756666696369656e742062616c616e636520666f6044820152651c8818d85b1b60d21b6064820152608401610785565b600080866001600160a01b03168587604051612c869190613282565b60006040518083038185875af1925050503d8060008114612cc3576040519150601f19603f3d011682016040523d82523d6000602084013e612cc8565b606091505b5091509150612cd987838387612ce4565b979650505050505050565b60608315612d50578251612d49576001600160a01b0385163b612d495760405162461bcd60e51b815260206004820152601d60248201527f416464726573733a2063616c6c20746f206e6f6e2d636f6e74726163740000006044820152606401610785565b5081612a4c565b612a4c8383815115612d655781518083602001fd5b8060405162461bcd60e51b81526004016107859190612f75565b50805460008255906000526020600020908101906106f291905b80821115612dad5760008155600101612d99565b5090565b600060208284031215612dc357600080fd5b81356001600160e01b031981168114612c0257600080fd5b600060208284031215612ded57600080fd5b5035919050565b80356001600160a01b0381168114612e0b57600080fd5b919050565b600060208284031215612e2257600080fd5b612c0282612df4565b60008060408385031215612e3e57600080fd5b82359150612e4e60208401612df4565b90509250929050565b60008060408385031215612e6a57600080fd5b612e7383612df4565b946020939093013593505050565b60008060408385031215612e9457600080fd5b612e9d83612df4565b9150612e4e60208401612df4565b80151581146106f257600080fd5b60008060408385031215612ecc57600080fd5b8235612e9d81612eab565b60008060008060808587031215612eed57600080fd5b8435935060208501359250612f0460408601612df4565b9396929550929360600135925050565b600080600060608486031215612f2957600080fd5b8335925060208401359150612f4060408501612df4565b90509250925092565b60005b83811015612f64578181015183820152602001612f4c565b8381111561161b5750506000910152565b6020815260008251806020840152612f94816040850160208701612f49565b601f01601f19169190910160400192915050565b6020808252818101527f215f61726552656c617465643a206e756c6c206368696c642061646472657373604082015260600190565b60208082526021908201527f215f61726552656c617465643a206e756c6c20706172656e74206164647265736040820152607360f81b606082015260800190565b634e487b7160e01b600052603260045260246000fd5b634e487b7160e01b600052601160045260246000fd5b600060001982141561305e5761305e613034565b5060010190565b60208082526021908201527f215f61726552656c617465643a206368696c6420646f65736e2774206d6174636040820152600d60fb1b606082015260800190565b60208082526022908201527f215f61726552656c617465643a20706172656e7420646f65736e2774206d61746040820152610c6d60f31b606082015260800190565b6000828210156130fa576130fa613034565b500390565b6000821982111561311257613112613034565b500190565b60008083128015600160ff1b85018412161561313557613135613034565b6001600160ff1b038401831381161561315057613150613034565b50500390565b634e487b7160e01b600052603160045260246000fd5b6000600160ff1b82141561318257613182613034565b506000190190565b6000826131a757634e487b7160e01b600052601260045260246000fd5b500490565b60008160001904831182151516156131c6576131c6613034565b500290565b6000602082840312156131dd57600080fd5b8151612c0281612eab565b7f416363657373436f6e74726f6c3a206163636f756e7420000000000000000000815260008351613220816017850160208801612f49565b7001034b99036b4b9b9b4b733903937b6329607d1b6017918401918201528351613251816028840160208801612f49565b01602801949350505050565b634e487b7160e01b600052604160045260246000fd5b60008161318257613182613034565b60008251613294818460208701612f49565b919091019291505056fe5d8e12c39142ff96d79d04d15d1ba1269e4fe57bb9d26f43523628b34ba108eca264697066735822122025fbe9a8674af58d5484a578864e1591d16dfeae5263049f3af48e98258e647264736f6c63430008090033",
  "devdoc": {
    "author": "Guillaume Dupont, Sami Darnaud",
    "custom:experimental": "This is an experimental contract. It should not be used in production.",
    "kind": "dev",
    "methods": {
      "addChild(uint256,uint256,address)": {
        "params": {
          "ceiling": "is the amount of token the child can claim.",
          "child": "is the address of the child.",
          "periodicity": "is the time that must pass between each claim, in seconds."
        }
      },
      "addChildAndFunds(uint256,uint256,address,uint256)": {
        "params": {
          "amount": "is the number of tokens that the child's account should be credited.",
          "ceiling": "is the amount of token the child can claim.",
          "child": "is the address of the child.",
          "periodicity": "is the time that must pass between each claim, in seconds."
        }
      },
      "addFunds(uint256,address)": {
        "params": {
          "amount": "is the amount of tokens to add.",
          "child": "is the address of the child."
        }
      },
      "changeChildAddress(address,address)": {
        "params": {
          "newAddr": "is the new address of your child.",
          "oldAddr": "is the previous address of your child."
        }
      },
      "changeConfig(uint256,uint256,address)": {
        "params": {
          "ceiling": "is the amount of token the child can claim.",
          "child": "is the address of the child.",
          "periodicity": "is the time that must pass between each claim, in seconds."
        }
      },
      "changeParentAddr(address)": {
        "params": {
          "newAddr": "is the address of the child."
        }
      },
      "computeClaimable(address)": {
        "details": "Computes the amount of token the child can claim.",
        "params": {
          "child": "is the child for which we compute the claimable amount."
        }
      },
      "constructor": {
        "custom:oz-upgrades-unsafe-allow": "constructor"
      },
      "getNumberChildren(address)": {
        "params": {
          "parent": "The address of the parent account"
        },
        "returns": {
          "_0": "childNb as a uint256."
        }
      },
      "getRoleAdmin(bytes32)": {
        "details": "Returns the admin role that controls `role`. See {grantRole} and {revokeRole}. To change a role's admin, use {_setRoleAdmin}."
      },
      "grantRole(bytes32,address)": {
        "details": "Grants `role` to `account`. If `account` had not been already granted `role`, emits a {RoleGranted} event. Requirements: - the caller must have ``role``'s admin role. May emit a {RoleGranted} event."
      },
      "hasRole(bytes32,address)": {
        "details": "Returns `true` if `account` has been granted `role`."
      },
      "removeChild(address)": {
        "details": "This function properly updates the parentToChildren array by removing the address of the child and making sure there is no gap inside the array.",
        "params": {
          "child": "is the address of the child."
        }
      },
      "renounceRole(bytes32,address)": {
        "details": "Revokes `role` from the calling account. Roles are often managed via {grantRole} and {revokeRole}: this function's purpose is to provide a mechanism for accounts to lose their privileges if they are compromised (such as when a trusted device is misplaced). If the calling account had been revoked `role`, emits a {RoleRevoked} event. Requirements: - the caller must be `account`. May emit a {RoleRevoked} event."
      },
      "revokeRole(bytes32,address)": {
        "details": "Revokes `role` from `account`. If `account` had been granted `role`, emits a {RoleRevoked} event. Requirements: - the caller must have ``role``'s admin role. May emit a {RoleRevoked} event."
      },
      "setActive(bool,address)": {
        "params": {
          "active": "the future value of conf.active.",
          "child": "the child to activate or desactivate the account."
        }
      },
      "supportsInterface(bytes4)": {
        "details": "See {IERC165-supportsInterface}."
      },
      "withdrawFundsFromChild(uint256,address)": {
        "params": {
          "amount": "is the amount of tokens to withdraw.",
          "child": "is the address of the child."
        }
      }
    },
    "title": "A pocket money faucet",
    "version": 1
  },
  "userdoc": {
    "kind": "user",
    "methods": {
      "addChild(uint256,uint256,address)": {
        "notice": "Add a child to a parent address"
      },
      "addChildAndFunds(uint256,uint256,address,uint256)": {
        "notice": "Add a child to a parent address + add funds to the child account."
      },
      "addFunds(uint256,address)": {
        "notice": "Add `amount` to your child `child` account."
      },
      "changeChildAddress(address,address)": {
        "notice": "This will change your child address: `oldAddr` is now `newAddr`."
      },
      "changeConfig(uint256,uint256,address)": {
        "notice": "This will set your child: `child` config to the following values: ceiling: `ceiling`, periodicity: `periodicity`."
      },
      "changeParentAddr(address)": {
        "notice": "You will change your address from `_msgSender()` to `newAddr`"
      },
      "claim()": {
        "notice": "You will receive the pocket money your parent deposited for you."
      },
      "getNumberChildren(address)": {
        "notice": "This returns the number of children asssociated to an address"
      },
      "removeChild(address)": {
        "notice": "Removes `child` from your account and transfers all the founds associated to him to your address."
      },
      "setActive(bool,address)": {
        "notice": "This transaction will set the active variable to `active`. If the value is false, your child: `child` won't be able to claim anymore."
      },
      "withdrawFundsFromChild(uint256,address)": {
        "notice": "You will withdraw `amount` from your child account `child`. If amount is 0, it will wihdraw all its balance."
      }
    },
    "version": 1
  },
  "storageLayout": {
    "storage": [
      {
        "astId": 415,
        "contract": "contracts/PocketFaucet.sol:PocketFaucet",
        "label": "_initialized",
        "offset": 0,
        "slot": "0",
        "type": "t_uint8"
      },
      {
        "astId": 418,
        "contract": "contracts/PocketFaucet.sol:PocketFaucet",
        "label": "_initializing",
        "offset": 1,
        "slot": "0",
        "type": "t_bool"
      },
      {
        "astId": 1297,
        "contract": "contracts/PocketFaucet.sol:PocketFaucet",
        "label": "__gap",
        "offset": 0,
        "slot": "1",
        "type": "t_array(t_uint256)50_storage"
      },
      {
        "astId": 1516,
        "contract": "contracts/PocketFaucet.sol:PocketFaucet",
        "label": "__gap",
        "offset": 0,
        "slot": "51",
        "type": "t_array(t_uint256)50_storage"
      },
      {
        "astId": 39,
        "contract": "contracts/PocketFaucet.sol:PocketFaucet",
        "label": "_roles",
        "offset": 0,
        "slot": "101",
        "type": "t_mapping(t_bytes32,t_struct(RoleData)34_storage)"
      },
      {
        "astId": 334,
        "contract": "contracts/PocketFaucet.sol:PocketFaucet",
        "label": "__gap",
        "offset": 0,
        "slot": "102",
        "type": "t_array(t_uint256)49_storage"
      },
      {
        "astId": 2406,
        "contract": "contracts/PocketFaucet.sol:PocketFaucet",
        "label": "_trustedForwarder",
        "offset": 0,
        "slot": "151",
        "type": "t_address"
      },
      {
        "astId": 2480,
        "contract": "contracts/PocketFaucet.sol:PocketFaucet",
        "label": "__gap",
        "offset": 0,
        "slot": "152",
        "type": "t_array(t_uint256)50_storage"
      },
      {
        "astId": 2504,
        "contract": "contracts/PocketFaucet.sol:PocketFaucet",
        "label": "baseToken",
        "offset": 0,
        "slot": "202",
        "type": "t_address"
      },
      {
        "astId": 2509,
        "contract": "contracts/PocketFaucet.sol:PocketFaucet",
        "label": "parentToChildren",
        "offset": 0,
        "slot": "203",
        "type": "t_mapping(t_address,t_array(t_address)dyn_storage)"
      },
      {
        "astId": 2514,
        "contract": "contracts/PocketFaucet.sol:PocketFaucet",
        "label": "childToConfig",
        "offset": 0,
        "slot": "204",
        "type": "t_mapping(t_address,t_struct(Config)2595_storage)"
      },
      {
        "astId": 2771,
        "contract": "contracts/PocketFaucet.sol:PocketFaucet",
        "label": "childrenList",
        "offset": 0,
        "slot": "205",
        "type": "t_array(t_address)dyn_storage"
      }
    ],
    "types": {
      "t_address": {
        "encoding": "inplace",
        "label": "address",
        "numberOfBytes": "20"
      },
      "t_array(t_address)dyn_storage": {
        "base": "t_address",
        "encoding": "dynamic_array",
        "label": "address[]",
        "numberOfBytes": "32"
      },
      "t_array(t_uint256)49_storage": {
        "base": "t_uint256",
        "encoding": "inplace",
        "label": "uint256[49]",
        "numberOfBytes": "1568"
      },
      "t_array(t_uint256)50_storage": {
        "base": "t_uint256",
        "encoding": "inplace",
        "label": "uint256[50]",
        "numberOfBytes": "1600"
      },
      "t_bool": {
        "encoding": "inplace",
        "label": "bool",
        "numberOfBytes": "1"
      },
      "t_bytes32": {
        "encoding": "inplace",
        "label": "bytes32",
        "numberOfBytes": "32"
      },
      "t_mapping(t_address,t_array(t_address)dyn_storage)": {
        "encoding": "mapping",
        "key": "t_address",
        "label": "mapping(address => address[])",
        "numberOfBytes": "32",
        "value": "t_array(t_address)dyn_storage"
      },
      "t_mapping(t_address,t_bool)": {
        "encoding": "mapping",
        "key": "t_address",
        "label": "mapping(address => bool)",
        "numberOfBytes": "32",
        "value": "t_bool"
      },
      "t_mapping(t_address,t_struct(Config)2595_storage)": {
        "encoding": "mapping",
        "key": "t_address",
        "label": "mapping(address => struct PocketFaucet.Config)",
        "numberOfBytes": "32",
        "value": "t_struct(Config)2595_storage"
      },
      "t_mapping(t_bytes32,t_struct(RoleData)34_storage)": {
        "encoding": "mapping",
        "key": "t_bytes32",
        "label": "mapping(bytes32 => struct AccessControlUpgradeable.RoleData)",
        "numberOfBytes": "32",
        "value": "t_struct(RoleData)34_storage"
      },
      "t_struct(Config)2595_storage": {
        "encoding": "inplace",
        "label": "struct PocketFaucet.Config",
        "members": [
          {
            "astId": 2584,
            "contract": "contracts/PocketFaucet.sol:PocketFaucet",
            "label": "active",
            "offset": 0,
            "slot": "0",
            "type": "t_bool"
          },
          {
            "astId": 2586,
            "contract": "contracts/PocketFaucet.sol:PocketFaucet",
            "label": "balance",
            "offset": 0,
            "slot": "1",
            "type": "t_uint256"
          },
          {
            "astId": 2588,
            "contract": "contracts/PocketFaucet.sol:PocketFaucet",
            "label": "ceiling",
            "offset": 0,
            "slot": "2",
            "type": "t_uint256"
          },
          {
            "astId": 2590,
            "contract": "contracts/PocketFaucet.sol:PocketFaucet",
            "label": "lastClaim",
            "offset": 0,
            "slot": "3",
            "type": "t_uint256"
          },
          {
            "astId": 2592,
            "contract": "contracts/PocketFaucet.sol:PocketFaucet",
            "label": "periodicity",
            "offset": 0,
            "slot": "4",
            "type": "t_uint256"
          },
          {
            "astId": 2594,
            "contract": "contracts/PocketFaucet.sol:PocketFaucet",
            "label": "parent",
            "offset": 0,
            "slot": "5",
            "type": "t_address"
          }
        ],
        "numberOfBytes": "192"
      },
      "t_struct(RoleData)34_storage": {
        "encoding": "inplace",
        "label": "struct AccessControlUpgradeable.RoleData",
        "members": [
          {
            "astId": 31,
            "contract": "contracts/PocketFaucet.sol:PocketFaucet",
            "label": "members",
            "offset": 0,
            "slot": "0",
            "type": "t_mapping(t_address,t_bool)"
          },
          {
            "astId": 33,
            "contract": "contracts/PocketFaucet.sol:PocketFaucet",
            "label": "adminRole",
            "offset": 0,
            "slot": "1",
            "type": "t_bytes32"
          }
        ],
        "numberOfBytes": "64"
      },
      "t_uint256": {
        "encoding": "inplace",
        "label": "uint256",
        "numberOfBytes": "32"
      },
      "t_uint8": {
        "encoding": "inplace",
        "label": "uint8",
        "numberOfBytes": "1"
      }
    }
  }
}