{
  "address": "0x0AD0097F20B62DdBb6efa3971Cd929e8c77893a4",
  "abi": [
    {
      "inputs": [],
      "stateMutability": "nonpayable",
      "type": "constructor"
    },
    {
      "anonymous": false,
      "inputs": [
        {
          "indexed": true,
          "internalType": "address",
          "name": "parent",
          "type": "address"
        },
        {
          "indexed": true,
          "internalType": "address",
          "name": "child",
          "type": "address"
        }
      ],
      "name": "ChildAdded",
      "type": "event"
    },
    {
      "anonymous": false,
      "inputs": [
        {
          "indexed": false,
          "internalType": "address",
          "name": "oldAddr",
          "type": "address"
        },
        {
          "indexed": false,
          "internalType": "address",
          "name": "newAddr",
          "type": "address"
        }
      ],
      "name": "ChildAddrChanged",
      "type": "event"
    },
    {
      "anonymous": false,
      "inputs": [
        {
          "indexed": true,
          "internalType": "address",
          "name": "parent",
          "type": "address"
        },
        {
          "indexed": true,
          "internalType": "address",
          "name": "child",
          "type": "address"
        }
      ],
      "name": "ChildRemoved",
      "type": "event"
    },
    {
      "anonymous": false,
      "inputs": [
        {
          "indexed": false,
          "internalType": "uint256",
          "name": "amount",
          "type": "uint256"
        }
      ],
      "name": "CoinWithdrawed",
      "type": "event"
    },
    {
      "anonymous": false,
      "inputs": [
        {
          "indexed": false,
          "internalType": "bool",
          "name": "active",
          "type": "bool"
        },
        {
          "indexed": false,
          "internalType": "uint256",
          "name": "ceiling",
          "type": "uint256"
        },
        {
          "indexed": true,
          "internalType": "address",
          "name": "child",
          "type": "address"
        }
      ],
      "name": "ConfigChanged",
      "type": "event"
    },
    {
      "anonymous": false,
      "inputs": [
        {
          "indexed": false,
          "internalType": "uint256",
          "name": "timestamp",
          "type": "uint256"
        },
        {
          "indexed": true,
          "internalType": "address",
          "name": "parent",
          "type": "address"
        },
        {
          "indexed": false,
          "internalType": "uint256",
          "name": "amount",
          "type": "uint256"
        },
        {
          "indexed": true,
          "internalType": "address",
          "name": "child",
          "type": "address"
        }
      ],
      "name": "FundsAdded",
      "type": "event"
    },
    {
      "anonymous": false,
      "inputs": [
        {
          "indexed": false,
          "internalType": "uint256",
          "name": "timestamp",
          "type": "uint256"
        },
        {
          "indexed": true,
          "internalType": "address",
          "name": "child",
          "type": "address"
        },
        {
          "indexed": false,
          "internalType": "uint256",
          "name": "amount",
          "type": "uint256"
        }
      ],
      "name": "FundsClaimed",
      "type": "event"
    },
    {
      "anonymous": false,
      "inputs": [
        {
          "indexed": true,
          "internalType": "address",
          "name": "parent",
          "type": "address"
        },
        {
          "indexed": false,
          "internalType": "uint256",
          "name": "amount",
          "type": "uint256"
        },
        {
          "indexed": true,
          "internalType": "address",
          "name": "child",
          "type": "address"
        }
      ],
      "name": "FundsWithdrawn",
      "type": "event"
    },
    {
      "anonymous": false,
      "inputs": [
        {
          "indexed": false,
          "internalType": "uint8",
          "name": "version",
          "type": "uint8"
        }
      ],
      "name": "Initialized",
      "type": "event"
    },
    {
      "anonymous": false,
      "inputs": [
        {
          "indexed": true,
          "internalType": "address",
          "name": "previousOwner",
          "type": "address"
        },
        {
          "indexed": true,
          "internalType": "address",
          "name": "newOwner",
          "type": "address"
        }
      ],
      "name": "OwnershipTransferred",
      "type": "event"
    },
    {
      "anonymous": false,
      "inputs": [
        {
          "indexed": true,
          "internalType": "address",
          "name": "oldAddr",
          "type": "address"
        },
        {
          "indexed": false,
          "internalType": "address",
          "name": "newAddr",
          "type": "address"
        }
      ],
      "name": "ParentChanged",
      "type": "event"
    },
    {
      "anonymous": false,
      "inputs": [
        {
          "indexed": true,
          "internalType": "address",
          "name": "token",
          "type": "address"
        },
        {
          "indexed": false,
          "internalType": "uint256",
          "name": "amount",
          "type": "uint256"
        }
      ],
      "name": "TokenWithdrawed",
      "type": "event"
    },
    {
      "inputs": [],
      "name": "_trustedForwarder",
      "outputs": [
        {
          "internalType": "address",
          "name": "",
          "type": "address"
        }
      ],
      "stateMutability": "view",
      "type": "function"
    },
    {
      "inputs": [
        {
          "internalType": "address",
          "name": "child",
          "type": "address"
        },
        {
          "components": [
            {
              "internalType": "uint256",
              "name": "ceiling",
              "type": "uint256"
            },
            {
              "internalType": "uint256",
              "name": "periodicity",
              "type": "uint256"
            },
            {
              "internalType": "uint256",
              "name": "tokenIndex",
              "type": "uint256"
            }
          ],
          "internalType": "struct PocketFaucet.InitConfig",
          "name": "config",
          "type": "tuple"
        }
      ],
      "name": "addChild",
      "outputs": [],
      "stateMutability": "nonpayable",
      "type": "function"
    },
    {
      "inputs": [
        {
          "internalType": "address",
          "name": "child",
          "type": "address"
        },
        {
          "components": [
            {
              "internalType": "uint256",
              "name": "ceiling",
              "type": "uint256"
            },
            {
              "internalType": "uint256",
              "name": "periodicity",
              "type": "uint256"
            },
            {
              "internalType": "uint256",
              "name": "tokenIndex",
              "type": "uint256"
            }
          ],
          "internalType": "struct PocketFaucet.InitConfig",
          "name": "config",
          "type": "tuple"
        },
        {
          "internalType": "uint256",
          "name": "amount",
          "type": "uint256"
        },
        {
          "internalType": "uint256",
          "name": "deadline",
          "type": "uint256"
        },
        {
          "internalType": "uint8",
          "name": "v",
          "type": "uint8"
        },
        {
          "internalType": "bytes32",
          "name": "r",
          "type": "bytes32"
        },
        {
          "internalType": "bytes32",
          "name": "s",
          "type": "bytes32"
        }
      ],
      "name": "addChildAndFundsPermit",
      "outputs": [],
      "stateMutability": "nonpayable",
      "type": "function"
    },
    {
      "inputs": [
        {
          "internalType": "address",
          "name": "child",
          "type": "address"
        },
        {
          "internalType": "uint256",
          "name": "amount",
          "type": "uint256"
        }
      ],
      "name": "addFunds",
      "outputs": [],
      "stateMutability": "nonpayable",
      "type": "function"
    },
    {
      "inputs": [
        {
          "internalType": "address",
          "name": "child",
          "type": "address"
        },
        {
          "internalType": "uint256",
          "name": "amount",
          "type": "uint256"
        },
        {
          "internalType": "uint256",
          "name": "deadline",
          "type": "uint256"
        },
        {
          "internalType": "uint8",
          "name": "v",
          "type": "uint8"
        },
        {
          "internalType": "bytes32",
          "name": "r",
          "type": "bytes32"
        },
        {
          "internalType": "bytes32",
          "name": "s",
          "type": "bytes32"
        }
      ],
      "name": "addFundsPermit",
      "outputs": [],
      "stateMutability": "nonpayable",
      "type": "function"
    },
    {
      "inputs": [
        {
          "internalType": "uint256",
          "name": "",
          "type": "uint256"
        }
      ],
      "name": "baseTokens",
      "outputs": [
        {
          "internalType": "address",
          "name": "",
          "type": "address"
        }
      ],
      "stateMutability": "view",
      "type": "function"
    },
    {
      "inputs": [
        {
          "internalType": "address",
          "name": "oldAddr",
          "type": "address"
        },
        {
          "internalType": "address",
          "name": "newAddr",
          "type": "address"
        }
      ],
      "name": "changeChildAddress",
      "outputs": [],
      "stateMutability": "nonpayable",
      "type": "function"
    },
    {
      "inputs": [
        {
          "internalType": "address",
          "name": "child",
          "type": "address"
        },
        {
          "internalType": "uint256",
          "name": "ceiling",
          "type": "uint256"
        },
        {
          "internalType": "uint256",
          "name": "periodicity",
          "type": "uint256"
        }
      ],
      "name": "changeConfig",
      "outputs": [],
      "stateMutability": "nonpayable",
      "type": "function"
    },
    {
      "inputs": [
        {
          "internalType": "address",
          "name": "newAddr",
          "type": "address"
        }
      ],
      "name": "changeParentAddr",
      "outputs": [],
      "stateMutability": "nonpayable",
      "type": "function"
    },
    {
      "inputs": [
        {
          "internalType": "address",
          "name": "",
          "type": "address"
        }
      ],
      "name": "childToConfig",
      "outputs": [
        {
          "internalType": "bool",
          "name": "active",
          "type": "bool"
        },
        {
          "internalType": "uint256",
          "name": "balance",
          "type": "uint256"
        },
        {
          "internalType": "uint256",
          "name": "ceiling",
          "type": "uint256"
        },
        {
          "internalType": "uint256",
          "name": "lastClaim",
          "type": "uint256"
        },
        {
          "internalType": "uint256",
          "name": "periodicity",
          "type": "uint256"
        },
        {
          "internalType": "address",
          "name": "parent",
          "type": "address"
        },
        {
          "internalType": "uint256",
          "name": "tokenIndex",
          "type": "uint256"
        }
      ],
      "stateMutability": "view",
      "type": "function"
    },
    {
      "inputs": [],
      "name": "claim",
      "outputs": [],
      "stateMutability": "nonpayable",
      "type": "function"
    },
    {
      "inputs": [
        {
          "internalType": "address",
          "name": "child",
          "type": "address"
        }
      ],
      "name": "computeClaimable",
      "outputs": [
        {
          "internalType": "uint256",
          "name": "",
          "type": "uint256"
        }
      ],
      "stateMutability": "view",
      "type": "function"
    },
    {
      "inputs": [
        {
          "internalType": "address",
          "name": "parent",
          "type": "address"
        }
      ],
      "name": "getNumberChildren",
      "outputs": [
        {
          "internalType": "uint256",
          "name": "",
          "type": "uint256"
        }
      ],
      "stateMutability": "view",
      "type": "function"
    },
    {
      "inputs": [
        {
          "internalType": "address",
          "name": "token",
          "type": "address"
        },
        {
          "internalType": "address",
          "name": "trustedForwarder",
          "type": "address"
        }
      ],
      "name": "initialize",
      "outputs": [],
      "stateMutability": "nonpayable",
      "type": "function"
    },
    {
      "inputs": [
        {
          "internalType": "address",
          "name": "forwarder",
          "type": "address"
        }
      ],
      "name": "isTrustedForwarder",
      "outputs": [
        {
          "internalType": "bool",
          "name": "",
          "type": "bool"
        }
      ],
      "stateMutability": "view",
      "type": "function"
    },
    {
      "inputs": [],
      "name": "owner",
      "outputs": [
        {
          "internalType": "address",
          "name": "",
          "type": "address"
        }
      ],
      "stateMutability": "view",
      "type": "function"
    },
    {
      "inputs": [
        {
          "internalType": "address",
          "name": "",
          "type": "address"
        },
        {
          "internalType": "uint256",
          "name": "",
          "type": "uint256"
        }
      ],
      "name": "parentToChildren",
      "outputs": [
        {
          "internalType": "address",
          "name": "",
          "type": "address"
        }
      ],
      "stateMutability": "view",
      "type": "function"
    },
    {
      "inputs": [
        {
          "internalType": "address",
          "name": "child",
          "type": "address"
        }
      ],
      "name": "removeChild",
      "outputs": [],
      "stateMutability": "nonpayable",
      "type": "function"
    },
    {
      "inputs": [],
      "name": "renounceOwnership",
      "outputs": [],
      "stateMutability": "nonpayable",
      "type": "function"
    },
    {
      "inputs": [
        {
          "internalType": "bool",
          "name": "active",
          "type": "bool"
        },
        {
          "internalType": "address",
          "name": "child",
          "type": "address"
        }
      ],
      "name": "setActive",
      "outputs": [],
      "stateMutability": "nonpayable",
      "type": "function"
    },
    {
      "inputs": [
        {
          "internalType": "address",
          "name": "trustedForwarder",
          "type": "address"
        }
      ],
      "name": "setTrustedForwarder",
      "outputs": [],
      "stateMutability": "nonpayable",
      "type": "function"
    },
    {
      "inputs": [
        {
          "internalType": "address",
          "name": "newOwner",
          "type": "address"
        }
      ],
      "name": "transferOwnership",
      "outputs": [],
      "stateMutability": "nonpayable",
      "type": "function"
    },
    {
      "inputs": [
        {
          "internalType": "uint256",
          "name": "amount",
          "type": "uint256"
        }
      ],
      "name": "withdrawCoin",
      "outputs": [],
      "stateMutability": "nonpayable",
      "type": "function"
    },
    {
      "inputs": [
        {
          "internalType": "uint256",
          "name": "amount",
          "type": "uint256"
        },
        {
          "internalType": "address",
          "name": "child",
          "type": "address"
        }
      ],
      "name": "withdrawFundsFromChild",
      "outputs": [],
      "stateMutability": "nonpayable",
      "type": "function"
    },
    {
      "stateMutability": "payable",
      "type": "receive"
    }
  ],
  "transactionHash": "0x2d47a811a2879b72cd977b0dc0bdb0b134510fc9dc49538d9373f30f9567fc14",
  "args": [],
  "numDeployments": 1,
  "solcInputHash": "4121b21a036286472b81ee42faab734e",
  "bytecode": "0x608060405234801561001057600080fd5b50606580546001600160a01b0319169055612b60806100306000396000f3fe60806040526004361061014f5760003560e01c8063572b6c05116100b65780639873f2621161006f5780639873f2621461046a578063a4e5320e1461048a578063bc4b3365146104aa578063d6dacac1146104ca578063da742228146104ea578063f2fde38b1461050a57600080fd5b8063572b6c05146103985780637100f6e0146103d7578063715018a6146103f757806383dffa841461040c5780638da5cb5b1461042c57806392a331ca1461044a57600080fd5b8063485cc95511610108578063485cc955146102bf5780634b4ea15d146102df5780634e71d92d146102ff5780634eb264e8146103145780635004128b1461033457806356c022bb1461037857600080fd5b806312a39db21461015b578063328123a21461017d578063377f7cb1146101ba5780633db1658a1461025f5780633f40b1b51461027f57806341a7c55b1461029f57600080fd5b3661015657005b600080fd5b34801561016757600080fd5b5061017b6101763660046126b6565b61052a565b005b34801561018957600080fd5b5061019d6101983660046126d1565b6108ff565b6040516001600160a01b0390911681526020015b60405180910390f35b3480156101c657600080fd5b5061021f6101d53660046126b6565b609a60205260009081526040902080546001820154600283015460038401546004850154600586015460069096015460ff9095169593949293919290916001600160a01b03169087565b604080519715158852602088019690965294860193909352606085019190915260808401526001600160a01b031660a083015260c082015260e0016101b1565b34801561026b57600080fd5b5061017b61027a3660046126b6565b610929565b34801561028b57600080fd5b5061017b61029a366004612702565b610b37565b3480156102ab57600080fd5b5061019d6102ba366004612736565b610dbf565b3480156102cb57600080fd5b5061017b6102da366004612760565b610df7565b3480156102eb57600080fd5b5061017b6102fa36600461279b565b610f5e565b34801561030b57600080fd5b5061017b61117b565b34801561032057600080fd5b5061017b61032f3660046126d1565b6113f0565b34801561034057600080fd5b5061036a61034f3660046126b6565b6001600160a01b031660009081526099602052604090205490565b6040519081526020016101b1565b34801561038457600080fd5b5060655461019d906001600160a01b031681565b3480156103a457600080fd5b506103c76103b33660046126b6565b6065546001600160a01b0391821691161490565b60405190151581526020016101b1565b3480156103e357600080fd5b5061017b6103f23660046127f3565b611473565b34801561040357600080fd5b5061017b611494565b34801561041857600080fd5b5061017b61042736600461286e565b6114a8565b34801561043857600080fd5b506033546001600160a01b031661019d565b34801561045657600080fd5b5061036a6104653660046126b6565b611623565b34801561047657600080fd5b5061017b610485366004612760565b6116ed565b34801561049657600080fd5b5061017b6104a536600461288c565b611ae2565b3480156104b657600080fd5b5061017b6104c5366004612736565b611d52565b3480156104d657600080fd5b5061017b6104e53660046128af565b611f72565b3480156104f657600080fd5b5061017b6105053660046126b6565b61217a565b34801561051657600080fd5b5061017b6105253660046126b6565b6121a4565b61053261221d565b816001600160a01b0381166105625760405162461bcd60e51b8152600401610559906128e2565b60405180910390fd5b6001600160a01b0381166105885760405162461bcd60e51b815260040161055990612919565b6001600160a01b038216600090815260996020526040812054815b81811015610606576001600160a01b038581166000908152609960205260409020805491861691839081106105da576105da61294e565b6000918252602090912001546001600160a01b031614156105fe5760019250610606565b6001016105a3565b50816106245760405162461bcd60e51b815260040161055990612964565b6001600160a01b038381166000908152609a60205260409020600501548116908516146106635760405162461bcd60e51b815260040161055990612999565b6001600160a01b038086166000908152609a60209081526040808320815160e081018352815460ff16151581526001820154818501526002820154818401526003820154606082015260048201546080820152600582015490951660a0860181905260069091015460c086015283526099909152812054905b818110156108285760a08301516001600160a01b0390811660009081526099602052604090208054918a1691839081106107185761071861294e565b6000918252602090912001546001600160a01b031614156108205760a08301516001600160a01b0316600090815260996020526040902061075a6001846129f0565b8154811061076a5761076a61294e565b600091825260208083209091015460a08601516001600160a01b039081168452609990925260409092208054919092169190839081106107ac576107ac61294e565b600091825260208083209190910180546001600160a01b0319166001600160a01b0394851617905560a086015190921681526099909152604090206107f26001846129f0565b815481106108025761080261294e565b600091825260209091200180546001600160a01b0319169055610828565b6001016106dc565b506001600160a01b038088166000818152609a6020526040808220600181018054600683018054845460ff1916855592869055600284018690556003840186905560048401869055600590930180546001600160a01b03191690559184905560a0880151925191959094939216917fd5987086ef0ea0ec23ef7cd2dc39a293271a5501e3b5e05db7ef8b7771fe717391a36108f46108c461221d565b83609884815481106108d8576108d861294e565b6000918252602090912001546001600160a01b0316919061222c565b505050505050505050565b6098818154811061090f57600080fd5b6000918252602090912001546001600160a01b0316905081565b806001600160a01b031661093b61221d565b6001600160a01b031614156109a95760405162461bcd60e51b815260206004820152602e60248201527f216368616e6765506172656e7441646472203a2063616e6e6f74206368616e6760448201526d32903a379039b0b6b29030b2323960911b6064820152608401610559565b6000609960006109b761221d565b6001600160a01b03168152602081019190915260400160009081208054909250906109e3600183612a07565b90505b60008112610ae75783609a6000858481548110610a0557610a0561294e565b6000918252602080832091909101546001600160a01b039081168452838201949094526040928301822060050180546001600160a01b0319169585169590951790945591871682526099909252208354849083908110610a6757610a6761294e565b60009182526020808320909101548354600181018555938352912090910180546001600160a01b0319166001600160a01b039092169190911790558254839080610ab357610ab3612a46565b600082815260209020810160001990810180546001600160a01b031916905501905580610adf81612a5c565b9150506109e6565b50610af061221d565b6040516001600160a01b03858116825291909116907fc9e4c719f349d4c91a37138eb5cf0ba2670c592a764f8c0b18c603ba9178cc1d9060200160405180910390a2505050565b6001600160a01b038216610b8d5760405162461bcd60e51b815260206004820152601a60248201527f216164644368696c643a2041646472657373206973206e756c6c0000000000006044820152606401610559565b6001600160a01b038281166000908152609a60205260409020600501541615610c075760405162461bcd60e51b815260206004820152602660248201527f216164644368696c643a204368696c64206164647265737320616c7265616479604482015265103a30b5b2b760d11b6064820152608401610559565b6020810135610c635760405162461bcd60e51b815260206004820152602260248201527f216164644368696c643a20706572696f6469636974792063616e6e6f74206265604482015261020360f41b6064820152608401610559565b60006040518060e0016040528060011515815260200160008152602001836000013581526020016000815260200183602001358152602001610ca361221d565b6001600160a01b0390811682526040858101356020938401528682166000908152609a84528181208551815460ff1916901515178155938501516001850155908401516002840155606084015160038401556080840151600484015560a08401516005840180546001600160a01b031916919093161790915560c0830151600690920191909155909150609990610d3861221d565b6001600160a01b03908116825260208083019390935260409091016000908120805460018101825590825292902090910180546001600160a01b0319169185169182179055610d8561221d565b6001600160a01b03167f50fea2e96d594d78d1380617b74e6f8ac1d275020bc08f95e6447c806bbd3d0860405160405180910390a3505050565b60996020528160005260406000208181548110610ddb57600080fd5b6000918252602090912001546001600160a01b03169150829050565b600054610100900460ff1615808015610e175750600054600160ff909116105b80610e315750303b158015610e31575060005460ff166001145b610e945760405162461bcd60e51b815260206004820152602e60248201527f496e697469616c697a61626c653a20636f6e747261637420697320616c72656160448201526d191e481a5b9a5d1a585b1a5e995960921b6064820152608401610559565b6000805460ff191660011790558015610eb7576000805461ff0019166101001790555b609880546001810182556000919091527f2237a976fa961f5921fd19f2b03c925c725d77b20ce8f790c19709c03de4d8140180546001600160a01b0319166001600160a01b038516179055610f0a61228f565b610f138261217a565b8015610f59576000805461ff0019169055604051600181527f7f26b83ff96e1f2b6a682f133852f6798a09c465da95921460cefb38474024989060200160405180910390a15b505050565b610f6661221d565b866001600160a01b038116610f8d5760405162461bcd60e51b8152600401610559906128e2565b6001600160a01b038116610fb35760405162461bcd60e51b815260040161055990612919565b6001600160a01b038216600090815260996020526040812054815b81811015611031576001600160a01b038581166000908152609960205260409020805491861691839081106110055761100561294e565b6000918252602090912001546001600160a01b031614156110295760019250611031565b600101610fce565b508161104f5760405162461bcd60e51b815260040161055990612964565b6001600160a01b038381166000908152609a602052604090206005015481169085161461108e5760405162461bcd60e51b815260040161055990612999565b6001600160a01b038a166000908152609a60205260409020600601546098805490919081106110bf576110bf61294e565b6000918252602090912001546001600160a01b031663d505accf6110e161221d565b6040516001600160e01b031960e084901b1681526001600160a01b039091166004820152306024820152604481018c9052606481018b905260ff8a16608482015260a4810189905260c4810188905260e401600060405180830381600087803b15801561114d57600080fd5b505af1158015611161573d6000803e3d6000fd5b5050505061116f8a8a611d52565b50505050505050505050565b6000609a600061118961221d565b6001600160a01b031681526020810191909152604001600020805490915060ff166111eb5760405162461bcd60e51b815260206004820152601260248201527121636c61696d3a206e6f742061637469766560701b6044820152606401610559565b60008160010154116112365760405162461bcd60e51b815260206004820152601460248201527321636c61696d3a206e756c6c2062616c616e636560601b6044820152606401610559565b609a600061124261221d565b6001600160a01b0316815260208101919091526040016000205460ff166112ab5760405162461bcd60e51b815260206004820152601b60248201527f21636c61696d3a206163636f756e7420697320696e61637469766500000000006044820152606401610559565b60006112b861046561221d565b9050806113075760405162461bcd60e51b815260206004820152601860248201527f21636c61696d3a206e6f7468696e6720746f20636c61696d00000000000000006044820152606401610559565b600382015415611355575b42826004015483600301546113279190612a7a565b10156113505781600401548260030160008282546113459190612a7a565b909155506113129050565b61135c565b4260038301555b8082600101600082825461137091906129f0565b9091555061137e905061221d565b6001600160a01b03167fa4eb50103b0591feb0bc913f479d92af5eb7ea33e8c397b49bab52ce6af26cb542836040516113c1929190918252602082015260400190565b60405180910390a26113ec6113d461221d565b8260988560060154815481106108d8576108d861294e565b5050565b6113f861230a565b806114005750475b6040518181527f8c28a88e8e3205fc54a609713af8b746e7458f71b9705e2e04ea32cb89ca03129060200160405180910390a161143b61221d565b6001600160a01b03166108fc829081150290604051600060405180830381858888f193505050501580156113ec573d6000803e3d6000fd5b61147d8787610b37565b61148b878686868686610f5e565b50505050505050565b61149c61230a565b6114a66000612383565b565b6114b061221d565b816001600160a01b0381166114d75760405162461bcd60e51b8152600401610559906128e2565b6001600160a01b0381166114fd5760405162461bcd60e51b815260040161055990612919565b6001600160a01b038216600090815260996020526040812054815b8181101561157b576001600160a01b0385811660009081526099602052604090208054918616918390811061154f5761154f61294e565b6000918252602090912001546001600160a01b03161415611573576001925061157b565b600101611518565b50816115995760405162461bcd60e51b815260040161055990612964565b6001600160a01b038381166000908152609a60205260409020600501548116908516146115d85760405162461bcd60e51b815260040161055990612999565b6001600160a01b0385166000908152609a60205260409020805460ff1916871515908117825560ff161561148b57600481015461161590426129f0565b600382015550505050505050565b6001600160a01b038082166000908152609a60209081526040808320815160e081018352815460ff161515815260018201549381019390935260028101549183019190915260038101546060830152600481015460808301819052600582015490941660a08301526006015460c082015290916116a35750600092915050565b42816080015182606001516116b89190612a7a565b11156116c75750600092915050565b80602001518160400151106116e05780602001516116e6565b80604001515b9392505050565b6116f561221d565b826001600160a01b03811661171c5760405162461bcd60e51b8152600401610559906128e2565b6001600160a01b0381166117425760405162461bcd60e51b815260040161055990612919565b6001600160a01b038216600090815260996020526040812054815b818110156117c0576001600160a01b038581166000908152609960205260409020805491861691839081106117945761179461294e565b6000918252602090912001546001600160a01b031614156117b857600192506117c0565b60010161175d565b50816117de5760405162461bcd60e51b815260040161055990612964565b6001600160a01b038381166000908152609a602052604090206005015481169085161461181d5760405162461bcd60e51b815260040161055990612999565b6001600160a01b038087166000908152609a60208181526040808420815160e081018352815460ff16151581526001820154818501526002820154818401526003820154606082015260048201546080820152600580830154881660a083015260069092015460c08201528b871686529390925290922090910154909116156118fa5760405162461bcd60e51b815260206004820152602960248201527f216368616e67654368696c64416464726573733a206368696c6420616c72656160448201526864792065786973747360b81b6064820152608401610559565b6001600160a01b038681166000908152609a602090815260408083208551815460ff1916901515178155858301516001820155858201516002820155606086015160038201556080860151600482015560a08601516005820180546001600160a01b0319169190961690811790955560c08601516006909101559282526099905290812054905b81811015611a445760a08301516001600160a01b0390811660009081526099602052604090208054918b1691839081106119bd576119bd61294e565b6000918252602090912001546001600160a01b03161415611a3c5760a08301516001600160a01b03166000908152609960205260409020805489919083908110611a0957611a0961294e565b9060005260206000200160006101000a8154816001600160a01b0302191690836001600160a01b03160217905550611a44565b600101611981565b506001600160a01b038881166000818152609a60209081526040808320805460ff19168155600181018490556002810184905560038101849055600481018490556005810180546001600160a01b0319169055600601929092558151928352928a16928201929092527facfe6eee67b2971dc75b29248e8defac47da9da570a2e5a8c8dc2e3f58eb5942910160405180910390a15050505050505050565b611aea61221d565b816001600160a01b038116611b115760405162461bcd60e51b8152600401610559906128e2565b6001600160a01b038116611b375760405162461bcd60e51b815260040161055990612919565b6001600160a01b038216600090815260996020526040812054815b81811015611bb5576001600160a01b03858116600090815260996020526040902080549186169183908110611b8957611b8961294e565b6000918252602090912001546001600160a01b03161415611bad5760019250611bb5565b600101611b52565b5081611bd35760405162461bcd60e51b815260040161055990612964565b6001600160a01b038381166000908152609a6020526040902060050154811690851614611c125760405162461bcd60e51b815260040161055990612999565b6001600160a01b0385166000908152609a60205260409020600181015480881115611c965760405162461bcd60e51b815260206004820152602e60248201527f21776974686472617746756e647346726f6d4368696c643a20616d6f756e742060448201526d3e206368696c6442616c616e636560901b6064820152608401610559565b87611c9f578097505b87826001016000828254611cb391906129f0565b90915550506001600160a01b038716611cca61221d565b6001600160a01b03167fe9171aeff46c37ab955b8aff908e14ae9732bd06634fa131226cfe5c25bfd2fb8a604051611d0491815260200190565b60405180910390a3611d48611d1761221d565b6001600160a01b0389166000908152609a6020526040902060060154609880548c929081106108d8576108d861294e565b5050505050505050565b611d5a61221d565b826001600160a01b038116611d815760405162461bcd60e51b8152600401610559906128e2565b6001600160a01b038116611da75760405162461bcd60e51b815260040161055990612919565b6001600160a01b038216600090815260996020526040812054815b81811015611e25576001600160a01b03858116600090815260996020526040902080549186169183908110611df957611df961294e565b6000918252602090912001546001600160a01b03161415611e1d5760019250611e25565b600101611dc2565b5081611e435760405162461bcd60e51b815260040161055990612964565b6001600160a01b038381166000908152609a6020526040902060050154811690851614611e825760405162461bcd60e51b815260040161055990612999565b6001600160a01b0386166000908152609a602052604081206001018054879290611ead908490612a7a565b90915550506001600160a01b038616611ec461221d565b6001600160a01b03167f51c280b8ead4e2136d2f038ca132c390a056c89a71411b134217209d3b9eccf84288604051611f07929190918252602082015260400190565b60405180910390a3611f6a611f1a61221d565b6001600160a01b0388166000908152609a60205260409020600601546098805430928a92918110611f4d57611f4d61294e565b6000918252602090912001546001600160a01b03169291906123d5565b505050505050565b611f7a61221d565b836001600160a01b038116611fa15760405162461bcd60e51b8152600401610559906128e2565b6001600160a01b038116611fc75760405162461bcd60e51b815260040161055990612919565b6001600160a01b038216600090815260996020526040812054815b81811015612045576001600160a01b038581166000908152609960205260409020805491861691839081106120195761201961294e565b6000918252602090912001546001600160a01b0316141561203d5760019250612045565b600101611fe2565b50816120635760405162461bcd60e51b815260040161055990612964565b6001600160a01b038381166000908152609a60205260409020600501548116908516146120a25760405162461bcd60e51b815260040161055990612999565b6001600160a01b0387166000908152609a60205260409020856121165760405162461bcd60e51b815260206004820152602660248201527f216368616e6765436f6e6669673a20706572696f6469636974792063616e6e6f60448201526507420626520360d41b6064820152608401610559565b600281018790556004810186905580546040805160ff90921615158252602082018990526001600160a01b038a16917fcfaf6bc5c9fd62f4270a1249386d53b1bcbec1d17088280f29fb14fcb2099ab4910160405180910390a25050505050505050565b61218261230a565b606580546001600160a01b0319166001600160a01b0392909216919091179055565b6121ac61230a565b6001600160a01b0381166122115760405162461bcd60e51b815260206004820152602660248201527f4f776e61626c653a206e6577206f776e657220697320746865207a65726f206160448201526564647265737360d01b6064820152608401610559565b61221a81612383565b50565b6000612227612413565b905090565b6040516001600160a01b038316602482015260448101829052610f5990849063a9059cbb60e01b906064015b60408051601f198184030181529190526020810180516001600160e01b03166001600160e01b03199093169290921790915261243b565b600054610100900460ff166122fa5760405162461bcd60e51b815260206004820152602b60248201527f496e697469616c697a61626c653a20636f6e7472616374206973206e6f74206960448201526a6e697469616c697a696e6760a81b6064820152608401610559565b6114a661230561221d565b612383565b61231261221d565b6001600160a01b031661232d6033546001600160a01b031690565b6001600160a01b0316146114a65760405162461bcd60e51b815260206004820181905260248201527f4f776e61626c653a2063616c6c6572206973206e6f7420746865206f776e65726044820152606401610559565b603380546001600160a01b038381166001600160a01b0319831681179093556040519116919082907f8be0079c531659141344cd1fd0a4f28419497f9722a3daafe3b4186f6b6457e090600090a35050565b6040516001600160a01b038085166024830152831660448201526064810182905261240d9085906323b872dd60e01b90608401612258565b50505050565b6065546000906001600160a01b0316331415612436575060131936013560601c90565b503390565b6000612490826040518060400160405280602081526020017f5361666545524332303a206c6f772d6c6576656c2063616c6c206661696c6564815250856001600160a01b031661250d9092919063ffffffff16565b805190915015610f5957808060200190518101906124ae9190612a92565b610f595760405162461bcd60e51b815260206004820152602a60248201527f5361666545524332303a204552433230206f7065726174696f6e20646964206e6044820152691bdd081cdd58d8d9595960b21b6064820152608401610559565b606061251c8484600085612524565b949350505050565b6060824710156125855760405162461bcd60e51b815260206004820152602660248201527f416464726573733a20696e73756666696369656e742062616c616e636520666f6044820152651c8818d85b1b60d21b6064820152608401610559565b600080866001600160a01b031685876040516125a19190612adb565b60006040518083038185875af1925050503d80600081146125de576040519150601f19603f3d011682016040523d82523d6000602084013e6125e3565b606091505b50915091506125f4878383876125ff565b979650505050505050565b6060831561266b578251612664576001600160a01b0385163b6126645760405162461bcd60e51b815260206004820152601d60248201527f416464726573733a2063616c6c20746f206e6f6e2d636f6e74726163740000006044820152606401610559565b508161251c565b61251c83838151156126805781518083602001fd5b8060405162461bcd60e51b81526004016105599190612af7565b80356001600160a01b03811681146126b157600080fd5b919050565b6000602082840312156126c857600080fd5b6116e68261269a565b6000602082840312156126e357600080fd5b5035919050565b6000606082840312156126fc57600080fd5b50919050565b6000806080838503121561271557600080fd5b61271e8361269a565b915061272d84602085016126ea565b90509250929050565b6000806040838503121561274957600080fd5b6127528361269a565b946020939093013593505050565b6000806040838503121561277357600080fd5b61277c8361269a565b915061272d6020840161269a565b803560ff811681146126b157600080fd5b60008060008060008060c087890312156127b457600080fd5b6127bd8761269a565b955060208701359450604087013593506127d96060880161278a565b92506080870135915060a087013590509295509295509295565b6000806000806000806000610120888a03121561280f57600080fd5b6128188861269a565b96506128278960208a016126ea565b95506080880135945060a0880135935061284360c0890161278a565b925060e08801359150610100880135905092959891949750929550565b801515811461221a57600080fd5b6000806040838503121561288157600080fd5b823561277c81612860565b6000806040838503121561289f57600080fd5b8235915061272d6020840161269a565b6000806000606084860312156128c457600080fd5b6128cd8461269a565b95602085013595506040909401359392505050565b6020808252601f908201527f2161726552656c617465643a206e756c6c206368696c64206164647265737300604082015260600190565b6020808252818101527f2161726552656c617465643a206e756c6c20706172656e742061646472657373604082015260600190565b634e487b7160e01b600052603260045260246000fd5b6020808252818101527f2161726552656c617465643a206368696c6420646f65736e2774206d61746368604082015260600190565b60208082526021908201527f2161726552656c617465643a20706172656e7420646f65736e2774206d6174636040820152600d60fb1b606082015260800190565b634e487b7160e01b600052601160045260246000fd5b600082821015612a0257612a026129da565b500390565b60008083128015600160ff1b850184121615612a2557612a256129da565b6001600160ff1b0384018313811615612a4057612a406129da565b50500390565b634e487b7160e01b600052603160045260246000fd5b6000600160ff1b821415612a7257612a726129da565b506000190190565b60008219821115612a8d57612a8d6129da565b500190565b600060208284031215612aa457600080fd5b81516116e681612860565b60005b83811015612aca578181015183820152602001612ab2565b8381111561240d5750506000910152565b60008251612aed818460208701612aaf565b9190910192915050565b6020815260008251806020840152612b16816040850160208701612aaf565b601f01601f1916919091016040019291505056fea2646970667358221220bfee53eb0c77950d4e064f1c5ccd5b84a44a30173c21acdf8b4cafd17a95a73664736f6c63430008090033",
  "devdoc": {
    "author": "Guillaume Dupont, Sami Darnaud, Solal Dunckel, Theo Palhol",
    "custom:experimental": "This is an experimental contract. It should not be used in production.",
    "kind": "dev",
    "methods": {
      "addChild(address,(uint256,uint256,uint256))": {
        "params": {
          "child": "is the address of the child.",
          "config": "contains various element of the config: periodicity, indexToken and ceiling"
        }
      },
      "addChildAndFundsPermit(address,(uint256,uint256,uint256),uint256,uint256,uint8,bytes32,bytes32)": {
        "params": {
          "amount": "is the number of tokens that the child's account should be credited.",
          "child": "is the address of the child."
        }
      },
      "addFunds(address,uint256)": {
        "params": {
          "amount": "is the amount of tokens to add.",
          "child": "is the address of the child."
        }
      },
      "addFundsPermit(address,uint256,uint256,uint8,bytes32,bytes32)": {
        "params": {
          "amount": "is the amount of tokens to add.",
          "child": "is the address of the child."
        }
      },
      "changeChildAddress(address,address)": {
        "params": {
          "newAddr": "is the new address of your child.",
          "oldAddr": "is the previous address of your child."
        }
      },
      "changeConfig(address,uint256,uint256)": {
        "params": {
          "ceiling": "is the amount of token the child can claim.",
          "child": "is the address of the child.",
          "periodicity": "is the time that must pass between each claim, in seconds."
        }
      },
      "changeParentAddr(address)": {
        "params": {
          "newAddr": "is the address of the child."
        }
      },
      "computeClaimable(address)": {
        "details": "Computes the amount of token the child can claim.",
        "params": {
          "child": "is the child for which we compute the claimable amount."
        }
      },
      "constructor": {
        "custom:oz-upgrades-unsafe-allow": "constructor"
      },
      "getNumberChildren(address)": {
        "params": {
          "parent": "The address of the parent account"
        },
        "returns": {
          "_0": "childNb as a uint256."
        }
      },
      "owner()": {
        "details": "Returns the address of the current owner."
      },
      "removeChild(address)": {
        "details": "This function properly updates the parentToChildren array by removing the address of the child and making sure there is no gap inside the array.",
        "params": {
          "child": "is the address of the child."
        }
      },
      "renounceOwnership()": {
        "details": "Leaves the contract without owner. It will not be possible to call `onlyOwner` functions anymore. Can only be called by the current owner. NOTE: Renouncing ownership will leave the contract without an owner, thereby removing any functionality that is only available to the owner."
      },
      "setActive(bool,address)": {
        "params": {
          "active": "the future value of conf.active.",
          "child": "the child to activate or desactivate the account."
        }
      },
      "transferOwnership(address)": {
        "details": "Transfers ownership of the contract to a new account (`newOwner`). Can only be called by the current owner."
      },
      "withdrawFundsFromChild(uint256,address)": {
        "params": {
          "amount": "is the amount of tokens to withdraw.",
          "child": "is the address of the child."
        }
      }
    },
    "title": "A pocket money faucet",
    "version": 1
  },
  "userdoc": {
    "kind": "user",
    "methods": {
      "addChild(address,(uint256,uint256,uint256))": {
        "notice": "Add a child to a parent address"
      },
      "addChildAndFundsPermit(address,(uint256,uint256,uint256),uint256,uint256,uint8,bytes32,bytes32)": {
        "notice": "Add a child to a parent address + add funds to the child account."
      },
      "addFunds(address,uint256)": {
        "notice": "Add `amount` to your child `child` account."
      },
      "addFundsPermit(address,uint256,uint256,uint8,bytes32,bytes32)": {
        "notice": "Add `amount` to your child `child` account."
      },
      "changeChildAddress(address,address)": {
        "notice": "This will change your child address: `oldAddr` is now `newAddr`."
      },
      "changeConfig(address,uint256,uint256)": {
        "notice": "This will set your child: `child` config to the following values: ceiling: `ceiling`, periodicity: `periodicity`."
      },
      "changeParentAddr(address)": {
        "notice": "You will change your address from `_msgSender()` to `newAddr`"
      },
      "claim()": {
        "notice": "You will receive the pocket money your parent deposited for you."
      },
      "getNumberChildren(address)": {
        "notice": "This returns the number of children asssociated to an address"
      },
      "removeChild(address)": {
        "notice": "Removes `child` from your account and transfers all the founds associated to him to your address."
      },
      "setActive(bool,address)": {
        "notice": "This transaction will set the active variable to `active`. If the value is false, your child: `child` won't be able to claim anymore."
      },
      "withdrawFundsFromChild(uint256,address)": {
        "notice": "You will withdraw `amount` from your child account `child`. If amount is 0, it will wihdraw all its balance."
      }
    },
    "version": 1
  },
  "storageLayout": {
    "storage": [
      {
        "astId": 138,
        "contract": "contracts/PocketFaucet.sol:PocketFaucet",
        "label": "_initialized",
        "offset": 0,
        "slot": "0",
        "type": "t_uint8"
      },
      {
        "astId": 141,
        "contract": "contracts/PocketFaucet.sol:PocketFaucet",
        "label": "_initializing",
        "offset": 1,
        "slot": "0",
        "type": "t_bool"
      },
      {
        "astId": 1020,
        "contract": "contracts/PocketFaucet.sol:PocketFaucet",
        "label": "__gap",
        "offset": 0,
        "slot": "1",
        "type": "t_array(t_uint256)50_storage"
      },
      {
        "astId": 10,
        "contract": "contracts/PocketFaucet.sol:PocketFaucet",
        "label": "_owner",
        "offset": 0,
        "slot": "51",
        "type": "t_address"
      },
      {
        "astId": 130,
        "contract": "contracts/PocketFaucet.sol:PocketFaucet",
        "label": "__gap",
        "offset": 0,
        "slot": "52",
        "type": "t_array(t_uint256)49_storage"
      },
      {
        "astId": 1033,
        "contract": "contracts/PocketFaucet.sol:PocketFaucet",
        "label": "_trustedForwarder",
        "offset": 0,
        "slot": "101",
        "type": "t_address"
      },
      {
        "astId": 1107,
        "contract": "contracts/PocketFaucet.sol:PocketFaucet",
        "label": "__gap",
        "offset": 0,
        "slot": "102",
        "type": "t_array(t_uint256)50_storage"
      },
      {
        "astId": 1127,
        "contract": "contracts/PocketFaucet.sol:PocketFaucet",
        "label": "baseTokens",
        "offset": 0,
        "slot": "152",
        "type": "t_array(t_address)dyn_storage"
      },
      {
        "astId": 1132,
        "contract": "contracts/PocketFaucet.sol:PocketFaucet",
        "label": "parentToChildren",
        "offset": 0,
        "slot": "153",
        "type": "t_mapping(t_address,t_array(t_address)dyn_storage)"
      },
      {
        "astId": 1137,
        "contract": "contracts/PocketFaucet.sol:PocketFaucet",
        "label": "childToConfig",
        "offset": 0,
        "slot": "154",
        "type": "t_mapping(t_address,t_struct(Config)1220_storage)"
      }
    ],
    "types": {
      "t_address": {
        "encoding": "inplace",
        "label": "address",
        "numberOfBytes": "20"
      },
      "t_array(t_address)dyn_storage": {
        "base": "t_address",
        "encoding": "dynamic_array",
        "label": "address[]",
        "numberOfBytes": "32"
      },
      "t_array(t_uint256)49_storage": {
        "base": "t_uint256",
        "encoding": "inplace",
        "label": "uint256[49]",
        "numberOfBytes": "1568"
      },
      "t_array(t_uint256)50_storage": {
        "base": "t_uint256",
        "encoding": "inplace",
        "label": "uint256[50]",
        "numberOfBytes": "1600"
      },
      "t_bool": {
        "encoding": "inplace",
        "label": "bool",
        "numberOfBytes": "1"
      },
      "t_mapping(t_address,t_array(t_address)dyn_storage)": {
        "encoding": "mapping",
        "key": "t_address",
        "label": "mapping(address => address[])",
        "numberOfBytes": "32",
        "value": "t_array(t_address)dyn_storage"
      },
      "t_mapping(t_address,t_struct(Config)1220_storage)": {
        "encoding": "mapping",
        "key": "t_address",
        "label": "mapping(address => struct PocketFaucet.Config)",
        "numberOfBytes": "32",
        "value": "t_struct(Config)1220_storage"
      },
      "t_struct(Config)1220_storage": {
        "encoding": "inplace",
        "label": "struct PocketFaucet.Config",
        "members": [
          {
            "astId": 1207,
            "contract": "contracts/PocketFaucet.sol:PocketFaucet",
            "label": "active",
            "offset": 0,
            "slot": "0",
            "type": "t_bool"
          },
          {
            "astId": 1209,
            "contract": "contracts/PocketFaucet.sol:PocketFaucet",
            "label": "balance",
            "offset": 0,
            "slot": "1",
            "type": "t_uint256"
          },
          {
            "astId": 1211,
            "contract": "contracts/PocketFaucet.sol:PocketFaucet",
            "label": "ceiling",
            "offset": 0,
            "slot": "2",
            "type": "t_uint256"
          },
          {
            "astId": 1213,
            "contract": "contracts/PocketFaucet.sol:PocketFaucet",
            "label": "lastClaim",
            "offset": 0,
            "slot": "3",
            "type": "t_uint256"
          },
          {
            "astId": 1215,
            "contract": "contracts/PocketFaucet.sol:PocketFaucet",
            "label": "periodicity",
            "offset": 0,
            "slot": "4",
            "type": "t_uint256"
          },
          {
            "astId": 1217,
            "contract": "contracts/PocketFaucet.sol:PocketFaucet",
            "label": "parent",
            "offset": 0,
            "slot": "5",
            "type": "t_address"
          },
          {
            "astId": 1219,
            "contract": "contracts/PocketFaucet.sol:PocketFaucet",
            "label": "tokenIndex",
            "offset": 0,
            "slot": "6",
            "type": "t_uint256"
          }
        ],
        "numberOfBytes": "224"
      },
      "t_uint256": {
        "encoding": "inplace",
        "label": "uint256",
        "numberOfBytes": "32"
      },
      "t_uint8": {
        "encoding": "inplace",
        "label": "uint8",
        "numberOfBytes": "1"
      }
    }
  }
}