{
  "address": "0x440Aaa9e96614c442c144453F2b319C5333C3bC8",
  "abi": [
    {
      "inputs": [],
      "stateMutability": "nonpayable",
      "type": "constructor"
    },
    {
      "anonymous": false,
      "inputs": [
        {
          "indexed": true,
          "internalType": "address",
          "name": "parent",
          "type": "address"
        },
        {
          "indexed": true,
          "internalType": "address",
          "name": "child",
          "type": "address"
        }
      ],
      "name": "ChildAdded",
      "type": "event"
    },
    {
      "anonymous": false,
      "inputs": [
        {
          "indexed": false,
          "internalType": "address",
          "name": "oldAddr",
          "type": "address"
        },
        {
          "indexed": false,
          "internalType": "address",
          "name": "newAddr",
          "type": "address"
        }
      ],
      "name": "ChildAddrChanged",
      "type": "event"
    },
    {
      "anonymous": false,
      "inputs": [
        {
          "indexed": true,
          "internalType": "address",
          "name": "parent",
          "type": "address"
        },
        {
          "indexed": true,
          "internalType": "address",
          "name": "child",
          "type": "address"
        }
      ],
      "name": "ChildRemoved",
      "type": "event"
    },
    {
      "anonymous": false,
      "inputs": [
        {
          "indexed": false,
          "internalType": "uint256",
          "name": "amount",
          "type": "uint256"
        }
      ],
      "name": "CoinWithdrawed",
      "type": "event"
    },
    {
      "anonymous": false,
      "inputs": [
        {
          "indexed": false,
          "internalType": "bool",
          "name": "active",
          "type": "bool"
        },
        {
          "indexed": false,
          "internalType": "uint256",
          "name": "ceiling",
          "type": "uint256"
        },
        {
          "indexed": true,
          "internalType": "address",
          "name": "child",
          "type": "address"
        }
      ],
      "name": "ConfigChanged",
      "type": "event"
    },
    {
      "anonymous": false,
      "inputs": [
        {
          "indexed": false,
          "internalType": "uint256",
          "name": "timestamp",
          "type": "uint256"
        },
        {
          "indexed": true,
          "internalType": "address",
          "name": "parent",
          "type": "address"
        },
        {
          "indexed": false,
          "internalType": "uint256",
          "name": "amount",
          "type": "uint256"
        },
        {
          "indexed": true,
          "internalType": "address",
          "name": "child",
          "type": "address"
        }
      ],
      "name": "FundsAdded",
      "type": "event"
    },
    {
      "anonymous": false,
      "inputs": [
        {
          "indexed": false,
          "internalType": "uint256",
          "name": "timestamp",
          "type": "uint256"
        },
        {
          "indexed": true,
          "internalType": "address",
          "name": "child",
          "type": "address"
        },
        {
          "indexed": false,
          "internalType": "uint256",
          "name": "amount",
          "type": "uint256"
        }
      ],
      "name": "FundsClaimed",
      "type": "event"
    },
    {
      "anonymous": false,
      "inputs": [
        {
          "indexed": true,
          "internalType": "address",
          "name": "parent",
          "type": "address"
        },
        {
          "indexed": false,
          "internalType": "uint256",
          "name": "amount",
          "type": "uint256"
        },
        {
          "indexed": true,
          "internalType": "address",
          "name": "child",
          "type": "address"
        }
      ],
      "name": "FundsWithdrawn",
      "type": "event"
    },
    {
      "anonymous": false,
      "inputs": [
        {
          "indexed": false,
          "internalType": "uint8",
          "name": "version",
          "type": "uint8"
        }
      ],
      "name": "Initialized",
      "type": "event"
    },
    {
      "anonymous": false,
      "inputs": [
        {
          "indexed": true,
          "internalType": "address",
          "name": "previousOwner",
          "type": "address"
        },
        {
          "indexed": true,
          "internalType": "address",
          "name": "newOwner",
          "type": "address"
        }
      ],
      "name": "OwnershipTransferred",
      "type": "event"
    },
    {
      "anonymous": false,
      "inputs": [
        {
          "indexed": true,
          "internalType": "address",
          "name": "oldAddr",
          "type": "address"
        },
        {
          "indexed": false,
          "internalType": "address",
          "name": "newAddr",
          "type": "address"
        }
      ],
      "name": "ParentChanged",
      "type": "event"
    },
    {
      "anonymous": false,
      "inputs": [
        {
          "indexed": true,
          "internalType": "address",
          "name": "token",
          "type": "address"
        },
        {
          "indexed": false,
          "internalType": "uint256",
          "name": "amount",
          "type": "uint256"
        }
      ],
      "name": "TokenWithdrawed",
      "type": "event"
    },
    {
      "inputs": [],
      "name": "_trustedForwarder",
      "outputs": [
        {
          "internalType": "address",
          "name": "",
          "type": "address"
        }
      ],
      "stateMutability": "view",
      "type": "function"
    },
    {
      "inputs": [
        {
          "internalType": "address",
          "name": "child",
          "type": "address"
        },
        {
          "components": [
            {
              "internalType": "uint256",
              "name": "ceiling",
              "type": "uint256"
            },
            {
              "internalType": "uint256",
              "name": "periodicity",
              "type": "uint256"
            },
            {
              "internalType": "uint256",
              "name": "tokenIndex",
              "type": "uint256"
            }
          ],
          "internalType": "struct PocketFaucet.InitConfig",
          "name": "config",
          "type": "tuple"
        }
      ],
      "name": "addChild",
      "outputs": [],
      "stateMutability": "nonpayable",
      "type": "function"
    },
    {
      "inputs": [
        {
          "internalType": "address",
          "name": "child",
          "type": "address"
        },
        {
          "components": [
            {
              "internalType": "uint256",
              "name": "ceiling",
              "type": "uint256"
            },
            {
              "internalType": "uint256",
              "name": "periodicity",
              "type": "uint256"
            },
            {
              "internalType": "uint256",
              "name": "tokenIndex",
              "type": "uint256"
            }
          ],
          "internalType": "struct PocketFaucet.InitConfig",
          "name": "config",
          "type": "tuple"
        },
        {
          "internalType": "uint256",
          "name": "amount",
          "type": "uint256"
        },
        {
          "internalType": "uint256",
          "name": "deadline",
          "type": "uint256"
        },
        {
          "internalType": "uint8",
          "name": "v",
          "type": "uint8"
        },
        {
          "internalType": "bytes32",
          "name": "r",
          "type": "bytes32"
        },
        {
          "internalType": "bytes32",
          "name": "s",
          "type": "bytes32"
        }
      ],
      "name": "addChildAndFundsPermit",
      "outputs": [],
      "stateMutability": "nonpayable",
      "type": "function"
    },
    {
      "inputs": [
        {
          "internalType": "address",
          "name": "child",
          "type": "address"
        },
        {
          "internalType": "uint256",
          "name": "amount",
          "type": "uint256"
        }
      ],
      "name": "addFunds",
      "outputs": [],
      "stateMutability": "nonpayable",
      "type": "function"
    },
    {
      "inputs": [
        {
          "internalType": "address",
          "name": "child",
          "type": "address"
        },
        {
          "internalType": "uint256",
          "name": "amount",
          "type": "uint256"
        },
        {
          "internalType": "uint256",
          "name": "deadline",
          "type": "uint256"
        },
        {
          "internalType": "uint8",
          "name": "v",
          "type": "uint8"
        },
        {
          "internalType": "bytes32",
          "name": "r",
          "type": "bytes32"
        },
        {
          "internalType": "bytes32",
          "name": "s",
          "type": "bytes32"
        }
      ],
      "name": "addFundsPermit",
      "outputs": [],
      "stateMutability": "nonpayable",
      "type": "function"
    },
    {
      "inputs": [
        {
          "internalType": "uint256",
          "name": "",
          "type": "uint256"
        }
      ],
      "name": "baseTokens",
      "outputs": [
        {
          "internalType": "address",
          "name": "",
          "type": "address"
        }
      ],
      "stateMutability": "view",
      "type": "function"
    },
    {
      "inputs": [
        {
          "internalType": "address",
          "name": "oldAddr",
          "type": "address"
        },
        {
          "internalType": "address",
          "name": "newAddr",
          "type": "address"
        }
      ],
      "name": "changeChildAddress",
      "outputs": [],
      "stateMutability": "nonpayable",
      "type": "function"
    },
    {
      "inputs": [
        {
          "internalType": "address",
          "name": "child",
          "type": "address"
        },
        {
          "internalType": "uint256",
          "name": "ceiling",
          "type": "uint256"
        },
        {
          "internalType": "uint256",
          "name": "periodicity",
          "type": "uint256"
        }
      ],
      "name": "changeConfig",
      "outputs": [],
      "stateMutability": "nonpayable",
      "type": "function"
    },
    {
      "inputs": [
        {
          "internalType": "address",
          "name": "newAddr",
          "type": "address"
        }
      ],
      "name": "changeParentAddr",
      "outputs": [],
      "stateMutability": "nonpayable",
      "type": "function"
    },
    {
      "inputs": [
        {
          "internalType": "address",
          "name": "",
          "type": "address"
        }
      ],
      "name": "childToConfig",
      "outputs": [
        {
          "internalType": "bool",
          "name": "active",
          "type": "bool"
        },
        {
          "internalType": "uint256",
          "name": "balance",
          "type": "uint256"
        },
        {
          "internalType": "uint256",
          "name": "ceiling",
          "type": "uint256"
        },
        {
          "internalType": "uint256",
          "name": "lastClaim",
          "type": "uint256"
        },
        {
          "internalType": "uint256",
          "name": "periodicity",
          "type": "uint256"
        },
        {
          "internalType": "address",
          "name": "parent",
          "type": "address"
        },
        {
          "internalType": "uint256",
          "name": "tokenIndex",
          "type": "uint256"
        }
      ],
      "stateMutability": "view",
      "type": "function"
    },
    {
      "inputs": [],
      "name": "claim",
      "outputs": [],
      "stateMutability": "nonpayable",
      "type": "function"
    },
    {
      "inputs": [
        {
          "internalType": "address",
          "name": "child",
          "type": "address"
        }
      ],
      "name": "computeClaimable",
      "outputs": [
        {
          "internalType": "uint256",
          "name": "",
          "type": "uint256"
        }
      ],
      "stateMutability": "view",
      "type": "function"
    },
    {
      "inputs": [
        {
          "internalType": "address",
          "name": "parent",
          "type": "address"
        }
      ],
      "name": "getNumberChildren",
      "outputs": [
        {
          "internalType": "uint256",
          "name": "",
          "type": "uint256"
        }
      ],
      "stateMutability": "view",
      "type": "function"
    },
    {
      "inputs": [
        {
          "internalType": "address",
          "name": "token",
          "type": "address"
        },
        {
          "internalType": "address",
          "name": "trustedForwarder",
          "type": "address"
        }
      ],
      "name": "initialize",
      "outputs": [],
      "stateMutability": "nonpayable",
      "type": "function"
    },
    {
      "inputs": [
        {
          "internalType": "address",
          "name": "forwarder",
          "type": "address"
        }
      ],
      "name": "isTrustedForwarder",
      "outputs": [
        {
          "internalType": "bool",
          "name": "",
          "type": "bool"
        }
      ],
      "stateMutability": "view",
      "type": "function"
    },
    {
      "inputs": [],
      "name": "owner",
      "outputs": [
        {
          "internalType": "address",
          "name": "",
          "type": "address"
        }
      ],
      "stateMutability": "view",
      "type": "function"
    },
    {
      "inputs": [
        {
          "internalType": "address",
          "name": "",
          "type": "address"
        },
        {
          "internalType": "uint256",
          "name": "",
          "type": "uint256"
        }
      ],
      "name": "parentToChildren",
      "outputs": [
        {
          "internalType": "address",
          "name": "",
          "type": "address"
        }
      ],
      "stateMutability": "view",
      "type": "function"
    },
    {
      "inputs": [
        {
          "internalType": "address",
          "name": "child",
          "type": "address"
        }
      ],
      "name": "removeChild",
      "outputs": [],
      "stateMutability": "nonpayable",
      "type": "function"
    },
    {
      "inputs": [],
      "name": "renounceOwnership",
      "outputs": [],
      "stateMutability": "nonpayable",
      "type": "function"
    },
    {
      "inputs": [
        {
          "internalType": "bool",
          "name": "active",
          "type": "bool"
        },
        {
          "internalType": "address",
          "name": "child",
          "type": "address"
        }
      ],
      "name": "setActive",
      "outputs": [],
      "stateMutability": "nonpayable",
      "type": "function"
    },
    {
      "inputs": [
        {
          "internalType": "address",
          "name": "trustedForwarder",
          "type": "address"
        }
      ],
      "name": "setTrustedForwarder",
      "outputs": [],
      "stateMutability": "nonpayable",
      "type": "function"
    },
    {
      "inputs": [
        {
          "internalType": "address",
          "name": "newOwner",
          "type": "address"
        }
      ],
      "name": "transferOwnership",
      "outputs": [],
      "stateMutability": "nonpayable",
      "type": "function"
    },
    {
      "inputs": [
        {
          "internalType": "uint256",
          "name": "amount",
          "type": "uint256"
        }
      ],
      "name": "withdrawCoin",
      "outputs": [],
      "stateMutability": "nonpayable",
      "type": "function"
    },
    {
      "inputs": [
        {
          "internalType": "uint256",
          "name": "amount",
          "type": "uint256"
        },
        {
          "internalType": "address",
          "name": "child",
          "type": "address"
        }
      ],
      "name": "withdrawFundsFromChild",
      "outputs": [],
      "stateMutability": "nonpayable",
      "type": "function"
    },
    {
      "stateMutability": "payable",
      "type": "receive"
    }
  ],
  "transactionHash": "0x3a91bdf18a0a0a208087a417ab57f10ad0565d022ff27f97f9551dd29ecc5682",
  "args": [],
  "numDeployments": 1,
  "solcInputHash": "4e1b178e7952485d72b0a55535a4627e",
  "bytecode": "0x608060405234801561001057600080fd5b50606580546001600160a01b0319169055612bdc806100306000396000f3fe60806040526004361061014f5760003560e01c8063572b6c05116100b65780639873f2621161006f5780639873f2621461046a578063a4e5320e1461048a578063bc4b3365146104aa578063d6dacac1146104ca578063da742228146104ea578063f2fde38b1461050a57600080fd5b8063572b6c05146103985780637100f6e0146103d7578063715018a6146103f757806383dffa841461040c5780638da5cb5b1461042c57806392a331ca1461044a57600080fd5b8063485cc95511610108578063485cc955146102bf5780634b4ea15d146102df5780634e71d92d146102ff5780634eb264e8146103145780635004128b1461033457806356c022bb1461037857600080fd5b806312a39db21461015b578063328123a21461017d578063377f7cb1146101ba5780633db1658a1461025f5780633f40b1b51461027f57806341a7c55b1461029f57600080fd5b3661015657005b600080fd5b34801561016757600080fd5b5061017b6101763660046126ea565b61052a565b005b34801561018957600080fd5b5061019d61019836600461270c565b6108ff565b6040516001600160a01b0390911681526020015b60405180910390f35b3480156101c657600080fd5b5061021f6101d53660046126ea565b609a60205260009081526040902080546001820154600283015460038401546004850154600586015460069096015460ff9095169593949293919290916001600160a01b03169087565b604080519715158852602088019690965294860193909352606085019190915260808401526001600160a01b031660a083015260c082015260e0016101b1565b34801561026b57600080fd5b5061017b61027a3660046126ea565b610929565b34801561028b57600080fd5b5061017b61029a36600461273d565b610b37565b3480156102ab57600080fd5b5061019d6102ba366004612771565b610dcd565b3480156102cb57600080fd5b5061017b6102da36600461279b565b610e05565b3480156102eb57600080fd5b5061017b6102fa3660046127d6565b610f6c565b34801561030b57600080fd5b5061017b611189565b34801561032057600080fd5b5061017b61032f36600461270c565b6113ef565b34801561034057600080fd5b5061036a61034f3660046126ea565b6001600160a01b031660009081526099602052604090205490565b6040519081526020016101b1565b34801561038457600080fd5b5060655461019d906001600160a01b031681565b3480156103a457600080fd5b506103c76103b33660046126ea565b6065546001600160a01b0391821691161490565b60405190151581526020016101b1565b3480156103e357600080fd5b5061017b6103f236600461282e565b611476565b34801561040357600080fd5b5061017b611497565b34801561041857600080fd5b5061017b6104273660046128a9565b6114ab565b34801561043857600080fd5b506033546001600160a01b031661019d565b34801561045657600080fd5b5061036a6104653660046126ea565b611626565b34801561047657600080fd5b5061017b61048536600461279b565b611721565b34801561049657600080fd5b5061017b6104a53660046128c7565b611b16565b3480156104b657600080fd5b5061017b6104c5366004612771565b611d86565b3480156104d657600080fd5b5061017b6104e53660046128ea565b611fa6565b3480156104f657600080fd5b5061017b6105053660046126ea565b6121ae565b34801561051657600080fd5b5061017b6105253660046126ea565b6121d8565b610532612251565b816001600160a01b0381166105625760405162461bcd60e51b81526004016105599061291d565b60405180910390fd5b6001600160a01b0381166105885760405162461bcd60e51b815260040161055990612954565b6001600160a01b038216600090815260996020526040812054815b81811015610606576001600160a01b038581166000908152609960205260409020805491861691839081106105da576105da612989565b6000918252602090912001546001600160a01b031614156105fe5760019250610606565b6001016105a3565b50816106245760405162461bcd60e51b81526004016105599061299f565b6001600160a01b038381166000908152609a60205260409020600501548116908516146106635760405162461bcd60e51b8152600401610559906129d4565b6001600160a01b038086166000908152609a60209081526040808320815160e081018352815460ff16151581526001820154818501526002820154818401526003820154606082015260048201546080820152600582015490951660a0860181905260069091015460c086015283526099909152812054905b818110156108285760a08301516001600160a01b0390811660009081526099602052604090208054918a16918390811061071857610718612989565b6000918252602090912001546001600160a01b031614156108205760a08301516001600160a01b0316600090815260996020526040902061075a600184612a2b565b8154811061076a5761076a612989565b600091825260208083209091015460a08601516001600160a01b039081168452609990925260409092208054919092169190839081106107ac576107ac612989565b600091825260208083209190910180546001600160a01b0319166001600160a01b0394851617905560a086015190921681526099909152604090206107f2600184612a2b565b8154811061080257610802612989565b600091825260209091200180546001600160a01b0319169055610828565b6001016106dc565b506001600160a01b038088166000818152609a6020526040808220600181018054600683018054845460ff1916855592869055600284018690556003840186905560048401869055600590930180546001600160a01b03191690559184905560a0880151925191959094939216917fd5987086ef0ea0ec23ef7cd2dc39a293271a5501e3b5e05db7ef8b7771fe717391a36108f46108c4612251565b83609884815481106108d8576108d8612989565b6000918252602090912001546001600160a01b03169190612260565b505050505050505050565b6098818154811061090f57600080fd5b6000918252602090912001546001600160a01b0316905081565b806001600160a01b031661093b612251565b6001600160a01b031614156109a95760405162461bcd60e51b815260206004820152602e60248201527f216368616e6765506172656e7441646472203a2063616e6e6f74206368616e6760448201526d32903a379039b0b6b29030b2323960911b6064820152608401610559565b6000609960006109b7612251565b6001600160a01b03168152602081019190915260400160009081208054909250906109e3600183612a42565b90505b60008112610ae75783609a6000858481548110610a0557610a05612989565b6000918252602080832091909101546001600160a01b039081168452838201949094526040928301822060050180546001600160a01b0319169585169590951790945591871682526099909252208354849083908110610a6757610a67612989565b60009182526020808320909101548354600181018555938352912090910180546001600160a01b0319166001600160a01b039092169190911790558254839080610ab357610ab3612a81565b600082815260209020810160001990810180546001600160a01b031916905501905580610adf81612a97565b9150506109e6565b50610af0612251565b6040516001600160a01b03858116825291909116907fc9e4c719f349d4c91a37138eb5cf0ba2670c592a764f8c0b18c603ba9178cc1d9060200160405180910390a2505050565b6001600160a01b038216610b8d5760405162461bcd60e51b815260206004820152601a60248201527f216164644368696c643a2041646472657373206973206e756c6c0000000000006044820152606401610559565b6001600160a01b038281166000908152609a60205260409020600501541615610c075760405162461bcd60e51b815260206004820152602660248201527f216164644368696c643a204368696c64206164647265737320616c7265616479604482015265103a30b5b2b760d11b6064820152608401610559565b6020810135610c635760405162461bcd60e51b815260206004820152602260248201527f216164644368696c643a20706572696f6469636974792063616e6e6f74206265604482015261020360f41b6064820152608401610559565b60006040518060e001604052806001151581526020016000815260200183600001358152602001836020013542610c9a9190612a2b565b815260200183602001358152602001610cb1612251565b6001600160a01b0390811682526040858101356020938401528682166000908152609a84528181208551815460ff1916901515178155938501516001850155908401516002840155606084015160038401556080840151600484015560a08401516005840180546001600160a01b031916919093161790915560c0830151600690920191909155909150609990610d46612251565b6001600160a01b03908116825260208083019390935260409091016000908120805460018101825590825292902090910180546001600160a01b0319169185169182179055610d93612251565b6001600160a01b03167f50fea2e96d594d78d1380617b74e6f8ac1d275020bc08f95e6447c806bbd3d0860405160405180910390a3505050565b60996020528160005260406000208181548110610de957600080fd5b6000918252602090912001546001600160a01b03169150829050565b600054610100900460ff1615808015610e255750600054600160ff909116105b80610e3f5750303b158015610e3f575060005460ff166001145b610ea25760405162461bcd60e51b815260206004820152602e60248201527f496e697469616c697a61626c653a20636f6e747261637420697320616c72656160448201526d191e481a5b9a5d1a585b1a5e995960921b6064820152608401610559565b6000805460ff191660011790558015610ec5576000805461ff0019166101001790555b609880546001810182556000919091527f2237a976fa961f5921fd19f2b03c925c725d77b20ce8f790c19709c03de4d8140180546001600160a01b0319166001600160a01b038516179055610f186122c3565b610f21826121ae565b8015610f67576000805461ff0019169055604051600181527f7f26b83ff96e1f2b6a682f133852f6798a09c465da95921460cefb38474024989060200160405180910390a15b505050565b610f74612251565b866001600160a01b038116610f9b5760405162461bcd60e51b81526004016105599061291d565b6001600160a01b038116610fc15760405162461bcd60e51b815260040161055990612954565b6001600160a01b038216600090815260996020526040812054815b8181101561103f576001600160a01b0385811660009081526099602052604090208054918616918390811061101357611013612989565b6000918252602090912001546001600160a01b03161415611037576001925061103f565b600101610fdc565b508161105d5760405162461bcd60e51b81526004016105599061299f565b6001600160a01b038381166000908152609a602052604090206005015481169085161461109c5760405162461bcd60e51b8152600401610559906129d4565b6001600160a01b038a166000908152609a60205260409020600601546098805490919081106110cd576110cd612989565b6000918252602090912001546001600160a01b031663d505accf6110ef612251565b6040516001600160e01b031960e084901b1681526001600160a01b039091166004820152306024820152604481018c9052606481018b905260ff8a16608482015260a4810189905260c4810188905260e401600060405180830381600087803b15801561115b57600080fd5b505af115801561116f573d6000803e3d6000fd5b5050505061117d8a8a611d86565b50505050505050505050565b6000609a6000611197612251565b6001600160a01b031681526020810191909152604001600020805490915060ff166111f95760405162461bcd60e51b815260206004820152601260248201527121636c61696d3a206e6f742061637469766560701b6044820152606401610559565b60008160010154116112445760405162461bcd60e51b815260206004820152601460248201527321636c61696d3a206e756c6c2062616c616e636560601b6044820152606401610559565b609a6000611250612251565b6001600160a01b0316815260208101919091526040016000205460ff166112b95760405162461bcd60e51b815260206004820152601b60248201527f21636c61696d3a206163636f756e7420697320696e61637469766500000000006044820152606401610559565b60006112c6610465612251565b9050806113155760405162461bcd60e51b815260206004820152601860248201527f21636c61696d3a206e6f7468696e6720746f20636c61696d00000000000000006044820152606401610559565b6000826004015483600301544261132c9190612a2b565b6113369190612ab5565b90508083600401546113489190612ad7565b83600301546113579190612af6565b8360030181905550818360010160008282546113739190612a2b565b909155506113819050612251565b6001600160a01b03167fa4eb50103b0591feb0bc913f479d92af5eb7ea33e8c397b49bab52ce6af26cb542846040516113c4929190918252602082015260400190565b60405180910390a2610f676113d7612251565b8360988660060154815481106108d8576108d8612989565b6113f761233e565b806113ff5750475b6040518181527f8c28a88e8e3205fc54a609713af8b746e7458f71b9705e2e04ea32cb89ca03129060200160405180910390a161143a612251565b6001600160a01b03166108fc829081150290604051600060405180830381858888f19350505050158015611472573d6000803e3d6000fd5b5050565b6114808787610b37565b61148e878686868686610f6c565b50505050505050565b61149f61233e565b6114a960006123b7565b565b6114b3612251565b816001600160a01b0381166114da5760405162461bcd60e51b81526004016105599061291d565b6001600160a01b0381166115005760405162461bcd60e51b815260040161055990612954565b6001600160a01b038216600090815260996020526040812054815b8181101561157e576001600160a01b0385811660009081526099602052604090208054918616918390811061155257611552612989565b6000918252602090912001546001600160a01b03161415611576576001925061157e565b60010161151b565b508161159c5760405162461bcd60e51b81526004016105599061299f565b6001600160a01b038381166000908152609a60205260409020600501548116908516146115db5760405162461bcd60e51b8152600401610559906129d4565b6001600160a01b0385166000908152609a60205260409020805460ff1916871515908117825560ff161561148e5760048101546116189042612a2b565b600382015550505050505050565b6001600160a01b038082166000908152609a60209081526040808320815160e081018352815460ff161515815260018201549381019390935260028101549183019190915260038101546060830152600481015460808301819052600582015490941660a08301526006015460c082015290916116a65750600092915050565b42816080015182606001516116bb9190612af6565b11156116ca5750600092915050565b600081608001518260600151426116e19190612a2b565b6116eb9190612ab5565b905060008183604001516116ff9190612ad7565b905082602001518110611716578260200151611718565b805b95945050505050565b611729612251565b826001600160a01b0381166117505760405162461bcd60e51b81526004016105599061291d565b6001600160a01b0381166117765760405162461bcd60e51b815260040161055990612954565b6001600160a01b038216600090815260996020526040812054815b818110156117f4576001600160a01b038581166000908152609960205260409020805491861691839081106117c8576117c8612989565b6000918252602090912001546001600160a01b031614156117ec57600192506117f4565b600101611791565b50816118125760405162461bcd60e51b81526004016105599061299f565b6001600160a01b038381166000908152609a60205260409020600501548116908516146118515760405162461bcd60e51b8152600401610559906129d4565b6001600160a01b038087166000908152609a60208181526040808420815160e081018352815460ff16151581526001820154818501526002820154818401526003820154606082015260048201546080820152600580830154881660a083015260069092015460c08201528b8716865293909252909220909101549091161561192e5760405162461bcd60e51b815260206004820152602960248201527f216368616e67654368696c64416464726573733a206368696c6420616c72656160448201526864792065786973747360b81b6064820152608401610559565b6001600160a01b038681166000908152609a602090815260408083208551815460ff1916901515178155858301516001820155858201516002820155606086015160038201556080860151600482015560a08601516005820180546001600160a01b0319169190961690811790955560c08601516006909101559282526099905290812054905b81811015611a785760a08301516001600160a01b0390811660009081526099602052604090208054918b1691839081106119f1576119f1612989565b6000918252602090912001546001600160a01b03161415611a705760a08301516001600160a01b03166000908152609960205260409020805489919083908110611a3d57611a3d612989565b9060005260206000200160006101000a8154816001600160a01b0302191690836001600160a01b03160217905550611a78565b6001016119b5565b506001600160a01b038881166000818152609a60209081526040808320805460ff19168155600181018490556002810184905560038101849055600481018490556005810180546001600160a01b0319169055600601929092558151928352928a16928201929092527facfe6eee67b2971dc75b29248e8defac47da9da570a2e5a8c8dc2e3f58eb5942910160405180910390a15050505050505050565b611b1e612251565b816001600160a01b038116611b455760405162461bcd60e51b81526004016105599061291d565b6001600160a01b038116611b6b5760405162461bcd60e51b815260040161055990612954565b6001600160a01b038216600090815260996020526040812054815b81811015611be9576001600160a01b03858116600090815260996020526040902080549186169183908110611bbd57611bbd612989565b6000918252602090912001546001600160a01b03161415611be15760019250611be9565b600101611b86565b5081611c075760405162461bcd60e51b81526004016105599061299f565b6001600160a01b038381166000908152609a6020526040902060050154811690851614611c465760405162461bcd60e51b8152600401610559906129d4565b6001600160a01b0385166000908152609a60205260409020600181015480881115611cca5760405162461bcd60e51b815260206004820152602e60248201527f21776974686472617746756e647346726f6d4368696c643a20616d6f756e742060448201526d3e206368696c6442616c616e636560901b6064820152608401610559565b87611cd3578097505b87826001016000828254611ce79190612a2b565b90915550506001600160a01b038716611cfe612251565b6001600160a01b03167fe9171aeff46c37ab955b8aff908e14ae9732bd06634fa131226cfe5c25bfd2fb8a604051611d3891815260200190565b60405180910390a3611d7c611d4b612251565b6001600160a01b0389166000908152609a6020526040902060060154609880548c929081106108d8576108d8612989565b5050505050505050565b611d8e612251565b826001600160a01b038116611db55760405162461bcd60e51b81526004016105599061291d565b6001600160a01b038116611ddb5760405162461bcd60e51b815260040161055990612954565b6001600160a01b038216600090815260996020526040812054815b81811015611e59576001600160a01b03858116600090815260996020526040902080549186169183908110611e2d57611e2d612989565b6000918252602090912001546001600160a01b03161415611e515760019250611e59565b600101611df6565b5081611e775760405162461bcd60e51b81526004016105599061299f565b6001600160a01b038381166000908152609a6020526040902060050154811690851614611eb65760405162461bcd60e51b8152600401610559906129d4565b6001600160a01b0386166000908152609a602052604081206001018054879290611ee1908490612af6565b90915550506001600160a01b038616611ef8612251565b6001600160a01b03167f51c280b8ead4e2136d2f038ca132c390a056c89a71411b134217209d3b9eccf84288604051611f3b929190918252602082015260400190565b60405180910390a3611f9e611f4e612251565b6001600160a01b0388166000908152609a60205260409020600601546098805430928a92918110611f8157611f81612989565b6000918252602090912001546001600160a01b0316929190612409565b505050505050565b611fae612251565b836001600160a01b038116611fd55760405162461bcd60e51b81526004016105599061291d565b6001600160a01b038116611ffb5760405162461bcd60e51b815260040161055990612954565b6001600160a01b038216600090815260996020526040812054815b81811015612079576001600160a01b0385811660009081526099602052604090208054918616918390811061204d5761204d612989565b6000918252602090912001546001600160a01b031614156120715760019250612079565b600101612016565b50816120975760405162461bcd60e51b81526004016105599061299f565b6001600160a01b038381166000908152609a60205260409020600501548116908516146120d65760405162461bcd60e51b8152600401610559906129d4565b6001600160a01b0387166000908152609a602052604090208561214a5760405162461bcd60e51b815260206004820152602660248201527f216368616e6765436f6e6669673a20706572696f6469636974792063616e6e6f60448201526507420626520360d41b6064820152608401610559565b600281018790556004810186905580546040805160ff90921615158252602082018990526001600160a01b038a16917fcfaf6bc5c9fd62f4270a1249386d53b1bcbec1d17088280f29fb14fcb2099ab4910160405180910390a25050505050505050565b6121b661233e565b606580546001600160a01b0319166001600160a01b0392909216919091179055565b6121e061233e565b6001600160a01b0381166122455760405162461bcd60e51b815260206004820152602660248201527f4f776e61626c653a206e6577206f776e657220697320746865207a65726f206160448201526564647265737360d01b6064820152608401610559565b61224e816123b7565b50565b600061225b612447565b905090565b6040516001600160a01b038316602482015260448101829052610f6790849063a9059cbb60e01b906064015b60408051601f198184030181529190526020810180516001600160e01b03166001600160e01b03199093169290921790915261246f565b600054610100900460ff1661232e5760405162461bcd60e51b815260206004820152602b60248201527f496e697469616c697a61626c653a20636f6e7472616374206973206e6f74206960448201526a6e697469616c697a696e6760a81b6064820152608401610559565b6114a9612339612251565b6123b7565b612346612251565b6001600160a01b03166123616033546001600160a01b031690565b6001600160a01b0316146114a95760405162461bcd60e51b815260206004820181905260248201527f4f776e61626c653a2063616c6c6572206973206e6f7420746865206f776e65726044820152606401610559565b603380546001600160a01b038381166001600160a01b0319831681179093556040519116919082907f8be0079c531659141344cd1fd0a4f28419497f9722a3daafe3b4186f6b6457e090600090a35050565b6040516001600160a01b03808516602483015283166044820152606481018290526124419085906323b872dd60e01b9060840161228c565b50505050565b6065546000906001600160a01b031633141561246a575060131936013560601c90565b503390565b60006124c4826040518060400160405280602081526020017f5361666545524332303a206c6f772d6c6576656c2063616c6c206661696c6564815250856001600160a01b03166125419092919063ffffffff16565b805190915015610f6757808060200190518101906124e29190612b0e565b610f675760405162461bcd60e51b815260206004820152602a60248201527f5361666545524332303a204552433230206f7065726174696f6e20646964206e6044820152691bdd081cdd58d8d9595960b21b6064820152608401610559565b60606125508484600085612558565b949350505050565b6060824710156125b95760405162461bcd60e51b815260206004820152602660248201527f416464726573733a20696e73756666696369656e742062616c616e636520666f6044820152651c8818d85b1b60d21b6064820152608401610559565b600080866001600160a01b031685876040516125d59190612b57565b60006040518083038185875af1925050503d8060008114612612576040519150601f19603f3d011682016040523d82523d6000602084013e612617565b606091505b509150915061262887838387612633565b979650505050505050565b6060831561269f578251612698576001600160a01b0385163b6126985760405162461bcd60e51b815260206004820152601d60248201527f416464726573733a2063616c6c20746f206e6f6e2d636f6e74726163740000006044820152606401610559565b5081612550565b61255083838151156126b45781518083602001fd5b8060405162461bcd60e51b81526004016105599190612b73565b80356001600160a01b03811681146126e557600080fd5b919050565b6000602082840312156126fc57600080fd5b612705826126ce565b9392505050565b60006020828403121561271e57600080fd5b5035919050565b60006060828403121561273757600080fd5b50919050565b6000806080838503121561275057600080fd5b612759836126ce565b91506127688460208501612725565b90509250929050565b6000806040838503121561278457600080fd5b61278d836126ce565b946020939093013593505050565b600080604083850312156127ae57600080fd5b6127b7836126ce565b9150612768602084016126ce565b803560ff811681146126e557600080fd5b60008060008060008060c087890312156127ef57600080fd5b6127f8876126ce565b95506020870135945060408701359350612814606088016127c5565b92506080870135915060a087013590509295509295509295565b6000806000806000806000610120888a03121561284a57600080fd5b612853886126ce565b96506128628960208a01612725565b95506080880135945060a0880135935061287e60c089016127c5565b925060e08801359150610100880135905092959891949750929550565b801515811461224e57600080fd5b600080604083850312156128bc57600080fd5b82356127b78161289b565b600080604083850312156128da57600080fd5b82359150612768602084016126ce565b6000806000606084860312156128ff57600080fd5b612908846126ce565b95602085013595506040909401359392505050565b6020808252601f908201527f2161726552656c617465643a206e756c6c206368696c64206164647265737300604082015260600190565b6020808252818101527f2161726552656c617465643a206e756c6c20706172656e742061646472657373604082015260600190565b634e487b7160e01b600052603260045260246000fd5b6020808252818101527f2161726552656c617465643a206368696c6420646f65736e2774206d61746368604082015260600190565b60208082526021908201527f2161726552656c617465643a20706172656e7420646f65736e2774206d6174636040820152600d60fb1b606082015260800190565b634e487b7160e01b600052601160045260246000fd5b600082821015612a3d57612a3d612a15565b500390565b60008083128015600160ff1b850184121615612a6057612a60612a15565b6001600160ff1b0384018313811615612a7b57612a7b612a15565b50500390565b634e487b7160e01b600052603160045260246000fd5b6000600160ff1b821415612aad57612aad612a15565b506000190190565b600082612ad257634e487b7160e01b600052601260045260246000fd5b500490565b6000816000190483118215151615612af157612af1612a15565b500290565b60008219821115612b0957612b09612a15565b500190565b600060208284031215612b2057600080fd5b81516127058161289b565b60005b83811015612b46578181015183820152602001612b2e565b838111156124415750506000910152565b60008251612b69818460208701612b2b565b9190910192915050565b6020815260008251806020840152612b92816040850160208701612b2b565b601f01601f1916919091016040019291505056fea2646970667358221220b2e86ee2cbefe399b16b8680a7b3eec3d87621a499fb4f8c1df7bf5000fa96f664736f6c63430008090033",
  "devdoc": {
    "author": "Guillaume Dupont, Sami Darnaud, Solal Dunckel, Theo Palhol",
    "custom:experimental": "This is an experimental contract. It should not be used in production.",
    "kind": "dev",
    "methods": {
      "addChild(address,(uint256,uint256,uint256))": {
        "params": {
          "child": "is the address of the child.",
          "config": "contains various element of the config: periodicity, indexToken and ceiling"
        }
      },
      "addChildAndFundsPermit(address,(uint256,uint256,uint256),uint256,uint256,uint8,bytes32,bytes32)": {
        "params": {
          "amount": "is the number of tokens that the child's account should be credited.",
          "child": "is the address of the child."
        }
      },
      "addFunds(address,uint256)": {
        "params": {
          "amount": "is the amount of tokens to add.",
          "child": "is the address of the child."
        }
      },
      "addFundsPermit(address,uint256,uint256,uint8,bytes32,bytes32)": {
        "params": {
          "amount": "is the amount of tokens to add.",
          "child": "is the address of the child."
        }
      },
      "changeChildAddress(address,address)": {
        "params": {
          "newAddr": "is the new address of your child.",
          "oldAddr": "is the previous address of your child."
        }
      },
      "changeConfig(address,uint256,uint256)": {
        "params": {
          "ceiling": "is the amount of token the child can claim.",
          "child": "is the address of the child.",
          "periodicity": "is the time that must pass between each claim, in seconds."
        }
      },
      "changeParentAddr(address)": {
        "params": {
          "newAddr": "is the address of the child."
        }
      },
      "computeClaimable(address)": {
        "details": "Computes the amount of token the child can claim.",
        "params": {
          "child": "is the child for which we compute the claimable amount."
        }
      },
      "constructor": {
        "custom:oz-upgrades-unsafe-allow": "constructor"
      },
      "getNumberChildren(address)": {
        "params": {
          "parent": "The address of the parent account"
        },
        "returns": {
          "_0": "childNb as a uint256."
        }
      },
      "owner()": {
        "details": "Returns the address of the current owner."
      },
      "removeChild(address)": {
        "details": "This function properly updates the parentToChildren array by removing the address of the child and making sure there is no gap inside the array.",
        "params": {
          "child": "is the address of the child."
        }
      },
      "renounceOwnership()": {
        "details": "Leaves the contract without owner. It will not be possible to call `onlyOwner` functions anymore. Can only be called by the current owner. NOTE: Renouncing ownership will leave the contract without an owner, thereby removing any functionality that is only available to the owner."
      },
      "setActive(bool,address)": {
        "params": {
          "active": "the future value of conf.active.",
          "child": "the child to activate or desactivate the account."
        }
      },
      "transferOwnership(address)": {
        "details": "Transfers ownership of the contract to a new account (`newOwner`). Can only be called by the current owner."
      },
      "withdrawFundsFromChild(uint256,address)": {
        "params": {
          "amount": "is the amount of tokens to withdraw.",
          "child": "is the address of the child."
        }
      }
    },
    "title": "A pocket money faucet",
    "version": 1
  },
  "userdoc": {
    "kind": "user",
    "methods": {
      "addChild(address,(uint256,uint256,uint256))": {
        "notice": "Add a child to a parent address"
      },
      "addChildAndFundsPermit(address,(uint256,uint256,uint256),uint256,uint256,uint8,bytes32,bytes32)": {
        "notice": "Add a child to a parent address + add funds to the child account."
      },
      "addFunds(address,uint256)": {
        "notice": "Add `amount` to your child `child` account."
      },
      "addFundsPermit(address,uint256,uint256,uint8,bytes32,bytes32)": {
        "notice": "Add `amount` to your child `child` account."
      },
      "changeChildAddress(address,address)": {
        "notice": "This will change your child address: `oldAddr` is now `newAddr`."
      },
      "changeConfig(address,uint256,uint256)": {
        "notice": "This will set your child: `child` config to the following values: ceiling: `ceiling`, periodicity: `periodicity`."
      },
      "changeParentAddr(address)": {
        "notice": "You will change your address from `_msgSender()` to `newAddr`"
      },
      "claim()": {
        "notice": "You will receive the pocket money your parent deposited for you."
      },
      "getNumberChildren(address)": {
        "notice": "This returns the number of children asssociated to an address"
      },
      "removeChild(address)": {
        "notice": "Removes `child` from your account and transfers all the founds associated to him to your address."
      },
      "setActive(bool,address)": {
        "notice": "This transaction will set the active variable to `active`. If the value is false, your child: `child` won't be able to claim anymore."
      },
      "withdrawFundsFromChild(uint256,address)": {
        "notice": "You will withdraw `amount` from your child account `child`. If amount is 0, it will wihdraw all its balance."
      }
    },
    "version": 1
  },
  "storageLayout": {
    "storage": [
      {
        "astId": 138,
        "contract": "contracts/PocketFaucet.sol:PocketFaucet",
        "label": "_initialized",
        "offset": 0,
        "slot": "0",
        "type": "t_uint8"
      },
      {
        "astId": 141,
        "contract": "contracts/PocketFaucet.sol:PocketFaucet",
        "label": "_initializing",
        "offset": 1,
        "slot": "0",
        "type": "t_bool"
      },
      {
        "astId": 1020,
        "contract": "contracts/PocketFaucet.sol:PocketFaucet",
        "label": "__gap",
        "offset": 0,
        "slot": "1",
        "type": "t_array(t_uint256)50_storage"
      },
      {
        "astId": 10,
        "contract": "contracts/PocketFaucet.sol:PocketFaucet",
        "label": "_owner",
        "offset": 0,
        "slot": "51",
        "type": "t_address"
      },
      {
        "astId": 130,
        "contract": "contracts/PocketFaucet.sol:PocketFaucet",
        "label": "__gap",
        "offset": 0,
        "slot": "52",
        "type": "t_array(t_uint256)49_storage"
      },
      {
        "astId": 1033,
        "contract": "contracts/PocketFaucet.sol:PocketFaucet",
        "label": "_trustedForwarder",
        "offset": 0,
        "slot": "101",
        "type": "t_address"
      },
      {
        "astId": 1107,
        "contract": "contracts/PocketFaucet.sol:PocketFaucet",
        "label": "__gap",
        "offset": 0,
        "slot": "102",
        "type": "t_array(t_uint256)50_storage"
      },
      {
        "astId": 1127,
        "contract": "contracts/PocketFaucet.sol:PocketFaucet",
        "label": "baseTokens",
        "offset": 0,
        "slot": "152",
        "type": "t_array(t_address)dyn_storage"
      },
      {
        "astId": 1132,
        "contract": "contracts/PocketFaucet.sol:PocketFaucet",
        "label": "parentToChildren",
        "offset": 0,
        "slot": "153",
        "type": "t_mapping(t_address,t_array(t_address)dyn_storage)"
      },
      {
        "astId": 1137,
        "contract": "contracts/PocketFaucet.sol:PocketFaucet",
        "label": "childToConfig",
        "offset": 0,
        "slot": "154",
        "type": "t_mapping(t_address,t_struct(Config)1220_storage)"
      }
    ],
    "types": {
      "t_address": {
        "encoding": "inplace",
        "label": "address",
        "numberOfBytes": "20"
      },
      "t_array(t_address)dyn_storage": {
        "base": "t_address",
        "encoding": "dynamic_array",
        "label": "address[]",
        "numberOfBytes": "32"
      },
      "t_array(t_uint256)49_storage": {
        "base": "t_uint256",
        "encoding": "inplace",
        "label": "uint256[49]",
        "numberOfBytes": "1568"
      },
      "t_array(t_uint256)50_storage": {
        "base": "t_uint256",
        "encoding": "inplace",
        "label": "uint256[50]",
        "numberOfBytes": "1600"
      },
      "t_bool": {
        "encoding": "inplace",
        "label": "bool",
        "numberOfBytes": "1"
      },
      "t_mapping(t_address,t_array(t_address)dyn_storage)": {
        "encoding": "mapping",
        "key": "t_address",
        "label": "mapping(address => address[])",
        "numberOfBytes": "32",
        "value": "t_array(t_address)dyn_storage"
      },
      "t_mapping(t_address,t_struct(Config)1220_storage)": {
        "encoding": "mapping",
        "key": "t_address",
        "label": "mapping(address => struct PocketFaucet.Config)",
        "numberOfBytes": "32",
        "value": "t_struct(Config)1220_storage"
      },
      "t_struct(Config)1220_storage": {
        "encoding": "inplace",
        "label": "struct PocketFaucet.Config",
        "members": [
          {
            "astId": 1207,
            "contract": "contracts/PocketFaucet.sol:PocketFaucet",
            "label": "active",
            "offset": 0,
            "slot": "0",
            "type": "t_bool"
          },
          {
            "astId": 1209,
            "contract": "contracts/PocketFaucet.sol:PocketFaucet",
            "label": "balance",
            "offset": 0,
            "slot": "1",
            "type": "t_uint256"
          },
          {
            "astId": 1211,
            "contract": "contracts/PocketFaucet.sol:PocketFaucet",
            "label": "ceiling",
            "offset": 0,
            "slot": "2",
            "type": "t_uint256"
          },
          {
            "astId": 1213,
            "contract": "contracts/PocketFaucet.sol:PocketFaucet",
            "label": "lastClaim",
            "offset": 0,
            "slot": "3",
            "type": "t_uint256"
          },
          {
            "astId": 1215,
            "contract": "contracts/PocketFaucet.sol:PocketFaucet",
            "label": "periodicity",
            "offset": 0,
            "slot": "4",
            "type": "t_uint256"
          },
          {
            "astId": 1217,
            "contract": "contracts/PocketFaucet.sol:PocketFaucet",
            "label": "parent",
            "offset": 0,
            "slot": "5",
            "type": "t_address"
          },
          {
            "astId": 1219,
            "contract": "contracts/PocketFaucet.sol:PocketFaucet",
            "label": "tokenIndex",
            "offset": 0,
            "slot": "6",
            "type": "t_uint256"
          }
        ],
        "numberOfBytes": "224"
      },
      "t_uint256": {
        "encoding": "inplace",
        "label": "uint256",
        "numberOfBytes": "32"
      },
      "t_uint8": {
        "encoding": "inplace",
        "label": "uint8",
        "numberOfBytes": "1"
      }
    }
  }
}