{
  "address": "0x110Ea0A5032699f08FCe49294eF102bA31E848d1",
  "abi": [
    {
      "inputs": [],
      "stateMutability": "nonpayable",
      "type": "constructor"
    },
    {
      "anonymous": false,
      "inputs": [
        {
          "indexed": true,
          "internalType": "address",
          "name": "parent",
          "type": "address"
        },
        {
          "indexed": true,
          "internalType": "address",
          "name": "child",
          "type": "address"
        }
      ],
      "name": "ChildAdded",
      "type": "event"
    },
    {
      "anonymous": false,
      "inputs": [
        {
          "indexed": false,
          "internalType": "address",
          "name": "oldAddr",
          "type": "address"
        },
        {
          "indexed": false,
          "internalType": "address",
          "name": "newAddr",
          "type": "address"
        }
      ],
      "name": "ChildAddrChanged",
      "type": "event"
    },
    {
      "anonymous": false,
      "inputs": [
        {
          "indexed": true,
          "internalType": "address",
          "name": "parent",
          "type": "address"
        },
        {
          "indexed": true,
          "internalType": "address",
          "name": "child",
          "type": "address"
        }
      ],
      "name": "ChildRemoved",
      "type": "event"
    },
    {
      "anonymous": false,
      "inputs": [
        {
          "indexed": false,
          "internalType": "uint256",
          "name": "amount",
          "type": "uint256"
        }
      ],
      "name": "CoinWithdrawed",
      "type": "event"
    },
    {
      "anonymous": false,
      "inputs": [
        {
          "indexed": false,
          "internalType": "bool",
          "name": "active",
          "type": "bool"
        },
        {
          "indexed": false,
          "internalType": "uint256",
          "name": "ceiling",
          "type": "uint256"
        },
        {
          "indexed": true,
          "internalType": "address",
          "name": "child",
          "type": "address"
        }
      ],
      "name": "ConfigChanged",
      "type": "event"
    },
    {
      "anonymous": false,
      "inputs": [
        {
          "indexed": false,
          "internalType": "uint256",
          "name": "timestamp",
          "type": "uint256"
        },
        {
          "indexed": true,
          "internalType": "address",
          "name": "parent",
          "type": "address"
        },
        {
          "indexed": false,
          "internalType": "uint256",
          "name": "amount",
          "type": "uint256"
        },
        {
          "indexed": true,
          "internalType": "address",
          "name": "child",
          "type": "address"
        }
      ],
      "name": "FundsAdded",
      "type": "event"
    },
    {
      "anonymous": false,
      "inputs": [
        {
          "indexed": false,
          "internalType": "uint256",
          "name": "timestamp",
          "type": "uint256"
        },
        {
          "indexed": true,
          "internalType": "address",
          "name": "child",
          "type": "address"
        },
        {
          "indexed": false,
          "internalType": "uint256",
          "name": "amount",
          "type": "uint256"
        }
      ],
      "name": "FundsClaimed",
      "type": "event"
    },
    {
      "anonymous": false,
      "inputs": [
        {
          "indexed": true,
          "internalType": "address",
          "name": "parent",
          "type": "address"
        },
        {
          "indexed": false,
          "internalType": "uint256",
          "name": "amount",
          "type": "uint256"
        },
        {
          "indexed": true,
          "internalType": "address",
          "name": "child",
          "type": "address"
        }
      ],
      "name": "FundsWithdrawn",
      "type": "event"
    },
    {
      "anonymous": false,
      "inputs": [
        {
          "indexed": false,
          "internalType": "uint8",
          "name": "version",
          "type": "uint8"
        }
      ],
      "name": "Initialized",
      "type": "event"
    },
    {
      "anonymous": false,
      "inputs": [
        {
          "indexed": true,
          "internalType": "address",
          "name": "previousOwner",
          "type": "address"
        },
        {
          "indexed": true,
          "internalType": "address",
          "name": "newOwner",
          "type": "address"
        }
      ],
      "name": "OwnershipTransferred",
      "type": "event"
    },
    {
      "anonymous": false,
      "inputs": [
        {
          "indexed": true,
          "internalType": "address",
          "name": "oldAddr",
          "type": "address"
        },
        {
          "indexed": false,
          "internalType": "address",
          "name": "newAddr",
          "type": "address"
        }
      ],
      "name": "ParentChanged",
      "type": "event"
    },
    {
      "anonymous": false,
      "inputs": [
        {
          "indexed": true,
          "internalType": "address",
          "name": "token",
          "type": "address"
        },
        {
          "indexed": false,
          "internalType": "uint256",
          "name": "amount",
          "type": "uint256"
        }
      ],
      "name": "TokenWithdrawed",
      "type": "event"
    },
    {
      "inputs": [],
      "name": "_trustedForwarder",
      "outputs": [
        {
          "internalType": "address",
          "name": "",
          "type": "address"
        }
      ],
      "stateMutability": "view",
      "type": "function"
    },
    {
      "inputs": [
        {
          "internalType": "address",
          "name": "child",
          "type": "address"
        },
        {
          "components": [
            {
              "internalType": "uint256",
              "name": "ceiling",
              "type": "uint256"
            },
            {
              "internalType": "uint256",
              "name": "periodicity",
              "type": "uint256"
            },
            {
              "internalType": "uint256",
              "name": "tokenIndex",
              "type": "uint256"
            }
          ],
          "internalType": "struct PocketFaucet.InitConfig",
          "name": "config",
          "type": "tuple"
        }
      ],
      "name": "addChild",
      "outputs": [],
      "stateMutability": "nonpayable",
      "type": "function"
    },
    {
      "inputs": [
        {
          "internalType": "address",
          "name": "child",
          "type": "address"
        },
        {
          "components": [
            {
              "internalType": "uint256",
              "name": "ceiling",
              "type": "uint256"
            },
            {
              "internalType": "uint256",
              "name": "periodicity",
              "type": "uint256"
            },
            {
              "internalType": "uint256",
              "name": "tokenIndex",
              "type": "uint256"
            }
          ],
          "internalType": "struct PocketFaucet.InitConfig",
          "name": "config",
          "type": "tuple"
        },
        {
          "internalType": "uint256",
          "name": "amount",
          "type": "uint256"
        },
        {
          "internalType": "uint256",
          "name": "deadline",
          "type": "uint256"
        },
        {
          "internalType": "uint8",
          "name": "v",
          "type": "uint8"
        },
        {
          "internalType": "bytes32",
          "name": "r",
          "type": "bytes32"
        },
        {
          "internalType": "bytes32",
          "name": "s",
          "type": "bytes32"
        }
      ],
      "name": "addChildAndFundsPermit",
      "outputs": [],
      "stateMutability": "nonpayable",
      "type": "function"
    },
    {
      "inputs": [
        {
          "internalType": "address",
          "name": "child",
          "type": "address"
        },
        {
          "internalType": "uint256",
          "name": "amount",
          "type": "uint256"
        }
      ],
      "name": "addFunds",
      "outputs": [],
      "stateMutability": "nonpayable",
      "type": "function"
    },
    {
      "inputs": [
        {
          "internalType": "address",
          "name": "child",
          "type": "address"
        },
        {
          "internalType": "uint256",
          "name": "amount",
          "type": "uint256"
        },
        {
          "internalType": "uint256",
          "name": "deadline",
          "type": "uint256"
        },
        {
          "internalType": "uint8",
          "name": "v",
          "type": "uint8"
        },
        {
          "internalType": "bytes32",
          "name": "r",
          "type": "bytes32"
        },
        {
          "internalType": "bytes32",
          "name": "s",
          "type": "bytes32"
        }
      ],
      "name": "addFundsPermit",
      "outputs": [],
      "stateMutability": "nonpayable",
      "type": "function"
    },
    {
      "inputs": [
        {
          "internalType": "uint256",
          "name": "",
          "type": "uint256"
        }
      ],
      "name": "baseTokens",
      "outputs": [
        {
          "internalType": "address",
          "name": "",
          "type": "address"
        }
      ],
      "stateMutability": "view",
      "type": "function"
    },
    {
      "inputs": [
        {
          "internalType": "address",
          "name": "oldAddr",
          "type": "address"
        },
        {
          "internalType": "address",
          "name": "newAddr",
          "type": "address"
        }
      ],
      "name": "changeChildAddress",
      "outputs": [],
      "stateMutability": "nonpayable",
      "type": "function"
    },
    {
      "inputs": [
        {
          "internalType": "address",
          "name": "child",
          "type": "address"
        },
        {
          "internalType": "uint256",
          "name": "ceiling",
          "type": "uint256"
        },
        {
          "internalType": "uint256",
          "name": "periodicity",
          "type": "uint256"
        }
      ],
      "name": "changeConfig",
      "outputs": [],
      "stateMutability": "nonpayable",
      "type": "function"
    },
    {
      "inputs": [
        {
          "internalType": "address",
          "name": "newAddr",
          "type": "address"
        }
      ],
      "name": "changeParentAddr",
      "outputs": [],
      "stateMutability": "nonpayable",
      "type": "function"
    },
    {
      "inputs": [
        {
          "internalType": "address",
          "name": "",
          "type": "address"
        }
      ],
      "name": "childToConfig",
      "outputs": [
        {
          "internalType": "bool",
          "name": "active",
          "type": "bool"
        },
        {
          "internalType": "uint256",
          "name": "balance",
          "type": "uint256"
        },
        {
          "internalType": "uint256",
          "name": "ceiling",
          "type": "uint256"
        },
        {
          "internalType": "uint256",
          "name": "lastClaim",
          "type": "uint256"
        },
        {
          "internalType": "uint256",
          "name": "periodicity",
          "type": "uint256"
        },
        {
          "internalType": "address",
          "name": "parent",
          "type": "address"
        },
        {
          "internalType": "uint256",
          "name": "tokenIndex",
          "type": "uint256"
        }
      ],
      "stateMutability": "view",
      "type": "function"
    },
    {
      "inputs": [
        {
          "internalType": "uint256",
          "name": "",
          "type": "uint256"
        }
      ],
      "name": "childrenList",
      "outputs": [
        {
          "internalType": "address",
          "name": "",
          "type": "address"
        }
      ],
      "stateMutability": "view",
      "type": "function"
    },
    {
      "inputs": [],
      "name": "claim",
      "outputs": [],
      "stateMutability": "nonpayable",
      "type": "function"
    },
    {
      "inputs": [
        {
          "internalType": "address",
          "name": "child",
          "type": "address"
        }
      ],
      "name": "computeClaimable",
      "outputs": [
        {
          "internalType": "uint256",
          "name": "",
          "type": "uint256"
        }
      ],
      "stateMutability": "view",
      "type": "function"
    },
    {
      "inputs": [
        {
          "internalType": "address",
          "name": "parent",
          "type": "address"
        }
      ],
      "name": "getNumberChildren",
      "outputs": [
        {
          "internalType": "uint256",
          "name": "",
          "type": "uint256"
        }
      ],
      "stateMutability": "view",
      "type": "function"
    },
    {
      "inputs": [
        {
          "internalType": "address",
          "name": "token",
          "type": "address"
        },
        {
          "internalType": "address",
          "name": "trustedForwarder",
          "type": "address"
        }
      ],
      "name": "initialize",
      "outputs": [],
      "stateMutability": "nonpayable",
      "type": "function"
    },
    {
      "inputs": [
        {
          "internalType": "address",
          "name": "forwarder",
          "type": "address"
        }
      ],
      "name": "isTrustedForwarder",
      "outputs": [
        {
          "internalType": "bool",
          "name": "",
          "type": "bool"
        }
      ],
      "stateMutability": "view",
      "type": "function"
    },
    {
      "inputs": [],
      "name": "owner",
      "outputs": [
        {
          "internalType": "address",
          "name": "",
          "type": "address"
        }
      ],
      "stateMutability": "view",
      "type": "function"
    },
    {
      "inputs": [
        {
          "internalType": "address",
          "name": "",
          "type": "address"
        },
        {
          "internalType": "uint256",
          "name": "",
          "type": "uint256"
        }
      ],
      "name": "parentToChildren",
      "outputs": [
        {
          "internalType": "address",
          "name": "",
          "type": "address"
        }
      ],
      "stateMutability": "view",
      "type": "function"
    },
    {
      "inputs": [
        {
          "internalType": "address",
          "name": "child",
          "type": "address"
        }
      ],
      "name": "removeChild",
      "outputs": [],
      "stateMutability": "nonpayable",
      "type": "function"
    },
    {
      "inputs": [],
      "name": "renounceOwnership",
      "outputs": [],
      "stateMutability": "nonpayable",
      "type": "function"
    },
    {
      "inputs": [],
      "name": "resetAll",
      "outputs": [],
      "stateMutability": "nonpayable",
      "type": "function"
    },
    {
      "inputs": [
        {
          "internalType": "bool",
          "name": "active",
          "type": "bool"
        },
        {
          "internalType": "address",
          "name": "child",
          "type": "address"
        }
      ],
      "name": "setActive",
      "outputs": [],
      "stateMutability": "nonpayable",
      "type": "function"
    },
    {
      "inputs": [
        {
          "internalType": "address",
          "name": "trustedForwarder",
          "type": "address"
        }
      ],
      "name": "setTrustedForwarder",
      "outputs": [],
      "stateMutability": "nonpayable",
      "type": "function"
    },
    {
      "inputs": [
        {
          "internalType": "address",
          "name": "newOwner",
          "type": "address"
        }
      ],
      "name": "transferOwnership",
      "outputs": [],
      "stateMutability": "nonpayable",
      "type": "function"
    },
    {
      "inputs": [
        {
          "internalType": "uint256",
          "name": "amount",
          "type": "uint256"
        }
      ],
      "name": "withdrawCoin",
      "outputs": [],
      "stateMutability": "nonpayable",
      "type": "function"
    },
    {
      "inputs": [
        {
          "internalType": "uint256",
          "name": "amount",
          "type": "uint256"
        },
        {
          "internalType": "address",
          "name": "child",
          "type": "address"
        }
      ],
      "name": "withdrawFundsFromChild",
      "outputs": [],
      "stateMutability": "nonpayable",
      "type": "function"
    },
    {
      "stateMutability": "payable",
      "type": "receive"
    }
  ],
  "transactionHash": "0xa1341d929736a35bddc0711839822345e3336ec3e2d80634ea5a4f4ec4b9ff16",
  "args": [],
  "numDeployments": 1,
  "solcInputHash": "0cfd47b7e33ffe19e86d0aab9396fd15",
  "bytecode": "0x608060405234801561001057600080fd5b50606580546001600160a01b03191690556130ec806100306000396000f3fe6080604052600436106101855760003560e01c8063572b6c05116100d15780639873f2621161008a578063d6dacac111610064578063d6dacac114610520578063da74222814610540578063e103aef514610560578063f2fde38b1461057557600080fd5b80639873f262146104c0578063a4e5320e146104e0578063bc4b33651461050057600080fd5b8063572b6c05146103ee5780637100f6e01461042d578063715018a61461044d57806383dffa84146104625780638da5cb5b1461048257806392a331ca146104a057600080fd5b806341a7c55b1161013e5780634e71d92d116101185780634e71d92d146103555780634eb264e81461036a5780635004128b1461038a57806356c022bb146103ce57600080fd5b806341a7c55b146102f5578063485cc955146103155780634b4ea15d1461033557600080fd5b80630f9b8f681461019157806312a39db2146101ce578063328123a2146101f0578063377f7cb1146102105780633db1658a146102b55780633f40b1b5146102d557600080fd5b3661018c57005b600080fd5b34801561019d57600080fd5b506101b16101ac366004612bac565b610595565b6040516001600160a01b0390911681526020015b60405180910390f35b3480156101da57600080fd5b506101ee6101e9366004612be1565b6105bf565b005b3480156101fc57600080fd5b506101b161020b366004612bac565b6109c4565b34801561021c57600080fd5b5061027561022b366004612be1565b609a60205260009081526040902080546001820154600283015460038401546004850154600586015460069096015460ff9095169593949293919290916001600160a01b03169087565b604080519715158852602088019690965294860193909352606085019190915260808401526001600160a01b031660a083015260c082015260e0016101c5565b3480156102c157600080fd5b506101ee6102d0366004612be1565b6109d4565b3480156102e157600080fd5b506101ee6102f0366004612c1b565b610be3565b34801561030157600080fd5b506101b1610310366004612c4f565b610edd565b34801561032157600080fd5b506101ee610330366004612c79565b610f15565b34801561034157600080fd5b506101ee610350366004612cb4565b61107c565b34801561036157600080fd5b506101ee6112a8565b34801561037657600080fd5b506101ee610385366004612bac565b61150b565b34801561039657600080fd5b506103c06103a5366004612be1565b6001600160a01b031660009081526099602052604090205490565b6040519081526020016101c5565b3480156103da57600080fd5b506065546101b1906001600160a01b031681565b3480156103fa57600080fd5b5061041d610409366004612be1565b6065546001600160a01b0391821691161490565b60405190151581526020016101c5565b34801561043957600080fd5b506101ee610448366004612d0c565b611592565b34801561045957600080fd5b506101ee6115b3565b34801561046e57600080fd5b506101ee61047d366004612d87565b6115c7565b34801561048e57600080fd5b506033546001600160a01b03166101b1565b3480156104ac57600080fd5b506103c06104bb366004612be1565b611756565b3480156104cc57600080fd5b506101ee6104db366004612c79565b611851565b3480156104ec57600080fd5b506101ee6104fb366004612da5565b611c5f565b34801561050c57600080fd5b506101ee61051b366004612c4f565b611edf565b34801561052c57600080fd5b506101ee61053b366004612dc8565b61210e565b34801561054c57600080fd5b506101ee61055b366004612be1565b612325565b34801561056c57600080fd5b506101ee61234f565b34801561058157600080fd5b506101ee610590366004612be1565b6123e9565b609b81815481106105a557600080fd5b6000918252602090912001546001600160a01b0316905081565b6105c7612462565b816001600160a01b0381166105f75760405162461bcd60e51b81526004016105ee90612dfb565b60405180910390fd5b6001600160a01b03811661061d5760405162461bcd60e51b81526004016105ee90612e30565b6001600160a01b038216600090815260996020526040812054815b818110156106a5576001600160a01b0385811660009081526099602052604090208054918616918390811061066f5761066f612e71565b6000918252602090912001546001600160a01b0316141561069357600192506106a5565b8061069d81612e9d565b915050610638565b506001821515146106c85760405162461bcd60e51b81526004016105ee90612eb8565b6001600160a01b038381166000908152609a60205260409020600501548116908516146107075760405162461bcd60e51b81526004016105ee90612ef9565b6001600160a01b038086166000908152609a60209081526040808320815160e081018352815460ff16151581526001820154818501526002820154818401526003820154606082015260048201546080820152600582015490951660a0860181905260069091015460c086015283526099909152812054905b818110156108d65760a08301516001600160a01b0390811660009081526099602052604090208054918a1691839081106107bc576107bc612e71565b6000918252602090912001546001600160a01b031614156108c45760a08301516001600160a01b031660009081526099602052604090206107fe600184612f3b565b8154811061080e5761080e612e71565b600091825260208083209091015460a08601516001600160a01b0390811684526099909252604090922080549190921691908390811061085057610850612e71565b600091825260208083209190910180546001600160a01b0319166001600160a01b0394851617905560a08601519092168152609990915260409020610896600184612f3b565b815481106108a6576108a6612e71565b600091825260209091200180546001600160a01b03191690556108d6565b806108ce81612e9d565b915050610780565b506109366108e2612462565b6001600160a01b0389166000908152609a60205260409020600181015460069091015460988054909190811061091a5761091a612e71565b6000918252602090912001546001600160a01b03169190612471565b6001600160a01b038088166000818152609a6020526040808220805460ff19168155600181018390556002810183905560038101839055600481018390556005810180546001600160a01b031916905560060182905560a08601519051929316917fd5987086ef0ea0ec23ef7cd2dc39a293271a5501e3b5e05db7ef8b7771fe71739190a350505050505050565b609881815481106105a557600080fd5b806001600160a01b03166109e6612462565b6001600160a01b03161415610a545760405162461bcd60e51b815260206004820152602e60248201527f216368616e6765506172656e7441646472203a2063616e6e6f74206368616e6760448201526d32903a379039b0b6b29030b2323960911b60648201526084016105ee565b600060996000610a62612462565b6001600160a01b0316815260208101919091526040016000908120805490925090610a8e600183612f52565b90505b60008112610b925783609a6000858481548110610ab057610ab0612e71565b6000918252602080832091909101546001600160a01b039081168452838201949094526040928301822060050180546001600160a01b0319169585169590951790945591871682526099909252208354849083908110610b1257610b12612e71565b60009182526020808320909101548354600181018555938352912090910180546001600160a01b0319166001600160a01b039092169190911790558254839080610b5e57610b5e612f91565b600082815260209020810160001990810180546001600160a01b031916905501905580610b8a81612fa7565b915050610a91565b50610b9b612462565b6040516001600160a01b03858116825291909116907fc9e4c719f349d4c91a37138eb5cf0ba2670c592a764f8c0b18c603ba9178cc1d906020015b60405180910390a2505050565b6001600160a01b038216610c395760405162461bcd60e51b815260206004820152601a60248201527f216164644368696c643a2041646472657373206973206e756c6c00000000000060448201526064016105ee565b6001600160a01b038281166000908152609a60205260409020600501541615610cb35760405162461bcd60e51b815260206004820152602660248201527f216164644368696c643a204368696c64206164647265737320616c7265616479604482015265103a30b5b2b760d11b60648201526084016105ee565b6020810135610d0f5760405162461bcd60e51b815260206004820152602260248201527f216164644368696c643a20706572696f6469636974792063616e6e6f74206265604482015261020360f41b60648201526084016105ee565b610d5a6040518060e001604052806000151581526020016000815260200160008152602001600081526020016000815260200160006001600160a01b03168152602001600081525090565b610d68602083013542612f3b565b60608201528135604082015260208201356080820152610d86612462565b6001600160a01b0390811660a083019081526001808452600060c085018181528785168252609a602090815260408084208851815460ff19169015151781559188015194820194909455928601516002840155606086015160038401556080860151600484015592516005830180546001600160a01b03191691909516179093559051600690910155609990610e1a612462565b6001600160a01b0390811682526020808301939093526040909101600090812080546001818101835591835293822090930180549287166001600160a01b03199384168117909155609b805494850181559091527fbba9db4cdbea0a37c207bbb83e20f828cd4441c49891101dc94fd20dc8efc349909201805490911682179055610ea3612462565b6001600160a01b03167f50fea2e96d594d78d1380617b74e6f8ac1d275020bc08f95e6447c806bbd3d0860405160405180910390a3505050565b60996020528160005260406000208181548110610ef957600080fd5b6000918252602090912001546001600160a01b03169150829050565b600054610100900460ff1615808015610f355750600054600160ff909116105b80610f4f5750303b158015610f4f575060005460ff166001145b610fb25760405162461bcd60e51b815260206004820152602e60248201527f496e697469616c697a61626c653a20636f6e747261637420697320616c72656160448201526d191e481a5b9a5d1a585b1a5e995960921b60648201526084016105ee565b6000805460ff191660011790558015610fd5576000805461ff0019166101001790555b609880546001810182556000919091527f2237a976fa961f5921fd19f2b03c925c725d77b20ce8f790c19709c03de4d8140180546001600160a01b0319166001600160a01b0385161790556110286124d4565b61103182612325565b8015611077576000805461ff0019169055604051600181527f7f26b83ff96e1f2b6a682f133852f6798a09c465da95921460cefb38474024989060200160405180910390a15b505050565b611084612462565b866001600160a01b0381166110ab5760405162461bcd60e51b81526004016105ee90612dfb565b6001600160a01b0381166110d15760405162461bcd60e51b81526004016105ee90612e30565b6001600160a01b038216600090815260996020526040812054815b81811015611159576001600160a01b0385811660009081526099602052604090208054918616918390811061112357611123612e71565b6000918252602090912001546001600160a01b031614156111475760019250611159565b8061115181612e9d565b9150506110ec565b5060018215151461117c5760405162461bcd60e51b81526004016105ee90612eb8565b6001600160a01b038381166000908152609a60205260409020600501548116908516146111bb5760405162461bcd60e51b81526004016105ee90612ef9565b6001600160a01b038a166000908152609a60205260409020600601546098805490919081106111ec576111ec612e71565b6000918252602090912001546001600160a01b031663d505accf61120e612462565b6040516001600160e01b031960e084901b1681526001600160a01b039091166004820152306024820152604481018c9052606481018b905260ff8a16608482015260a4810189905260c4810188905260e401600060405180830381600087803b15801561127a57600080fd5b505af115801561128e573d6000803e3d6000fd5b5050505061129c8a8a611edf565b50505050505050505050565b6000609a60006112b6612462565b6001600160a01b031681526020810191909152604001600020805490915060ff166113185760405162461bcd60e51b815260206004820152601260248201527121636c61696d3a206e6f742061637469766560701b60448201526064016105ee565b60008160010154116113635760405162461bcd60e51b815260206004820152601460248201527321636c61696d3a206e756c6c2062616c616e636560601b60448201526064016105ee565b609a600061136f612462565b6001600160a01b0316815260208101919091526040016000205460ff1615156001146113dd5760405162461bcd60e51b815260206004820152601b60248201527f21636c61696d3a206163636f756e7420697320696e616374697665000000000060448201526064016105ee565b60006113ea6104bb612462565b9050806114395760405162461bcd60e51b815260206004820152601860248201527f21636c61696d3a206e6f7468696e6720746f20636c61696d000000000000000060448201526064016105ee565b600082600401548360030154426114509190612f3b565b61145a9190612fc5565b905080836004015461146c9190612fe7565b836003015461147b9190613006565b8360030181905550818360010160008282546114979190612f3b565b909155506114c090506114a8612462565b83609886600601548154811061091a5761091a612e71565b6114c8612462565b6001600160a01b03167fa4eb50103b0591feb0bc913f479d92af5eb7ea33e8c397b49bab52ce6af26cb54284604051610bd6929190918252602082015260400190565b61151361254f565b8061151b5750475b611523612462565b6001600160a01b03166108fc829081150290604051600060405180830381858888f1935050505015801561155b573d6000803e3d6000fd5b506040518181527f8c28a88e8e3205fc54a609713af8b746e7458f71b9705e2e04ea32cb89ca03129060200160405180910390a150565b61159c8787610be3565b6115aa87868686868661107c565b50505050505050565b6115bb61254f565b6115c560006125c8565b565b6115cf612462565b816001600160a01b0381166115f65760405162461bcd60e51b81526004016105ee90612dfb565b6001600160a01b03811661161c5760405162461bcd60e51b81526004016105ee90612e30565b6001600160a01b038216600090815260996020526040812054815b818110156116a4576001600160a01b0385811660009081526099602052604090208054918616918390811061166e5761166e612e71565b6000918252602090912001546001600160a01b0316141561169257600192506116a4565b8061169c81612e9d565b915050611637565b506001821515146116c75760405162461bcd60e51b81526004016105ee90612eb8565b6001600160a01b038381166000908152609a60205260409020600501548116908516146117065760405162461bcd60e51b81526004016105ee90612ef9565b6001600160a01b0385166000908152609a60205260409020805460ff1916871515908117825560ff161515600114156115aa5760048101546117489042612f3b565b600382015550505050505050565b6001600160a01b038082166000908152609a60209081526040808320815160e081018352815460ff161515815260018201549381019390935260028101549183019190915260038101546060830152600481015460808301819052600582015490941660a08301526006015460c082015290916117d65750600092915050565b42816080015182606001516117eb9190613006565b11156117fa5750600092915050565b600081608001518260600151426118119190612f3b565b61181b9190612fc5565b9050600081836040015161182f9190612fe7565b905082602001518110611846578260200151611848565b805b95945050505050565b611859612462565b826001600160a01b0381166118805760405162461bcd60e51b81526004016105ee90612dfb565b6001600160a01b0381166118a65760405162461bcd60e51b81526004016105ee90612e30565b6001600160a01b038216600090815260996020526040812054815b8181101561192e576001600160a01b038581166000908152609960205260409020805491861691839081106118f8576118f8612e71565b6000918252602090912001546001600160a01b0316141561191c576001925061192e565b8061192681612e9d565b9150506118c1565b506001821515146119515760405162461bcd60e51b81526004016105ee90612eb8565b6001600160a01b038381166000908152609a60205260409020600501548116908516146119905760405162461bcd60e51b81526004016105ee90612ef9565b6001600160a01b038087166000908152609a60208181526040808420815160e081018352815460ff16151581526001820154818501526002820154818401526003820154606082015260048201546080820152600580830154881660a083015260069092015460c08201528b87168652939092529092209091015490911615611a6d5760405162461bcd60e51b815260206004820152602960248201527f216368616e67654368696c64416464726573733a206368696c6420616c72656160448201526864792065786973747360b81b60648201526084016105ee565b6001600160a01b038681166000908152609a602090815260408083208551815460ff1916901515178155858301516001820155858201516002820155606086015160038201556080860151600482015560a08601516005820180546001600160a01b0319169190961690811790955560c08601516006909101559282526099905290812054905b81811015611bc15760a08301516001600160a01b0390811660009081526099602052604090208054918b169183908110611b3057611b30612e71565b6000918252602090912001546001600160a01b03161415611baf5760a08301516001600160a01b03166000908152609960205260409020805489919083908110611b7c57611b7c612e71565b9060005260206000200160006101000a8154816001600160a01b0302191690836001600160a01b03160217905550611bc1565b80611bb981612e9d565b915050611af4565b506001600160a01b038881166000818152609a60209081526040808320805460ff19168155600181018490556002810184905560038101849055600481018490556005810180546001600160a01b0319169055600601929092558151928352928a16928201929092527facfe6eee67b2971dc75b29248e8defac47da9da570a2e5a8c8dc2e3f58eb5942910160405180910390a15050505050505050565b611c67612462565b816001600160a01b038116611c8e5760405162461bcd60e51b81526004016105ee90612dfb565b6001600160a01b038116611cb45760405162461bcd60e51b81526004016105ee90612e30565b6001600160a01b038216600090815260996020526040812054815b81811015611d3c576001600160a01b03858116600090815260996020526040902080549186169183908110611d0657611d06612e71565b6000918252602090912001546001600160a01b03161415611d2a5760019250611d3c565b80611d3481612e9d565b915050611ccf565b50600182151514611d5f5760405162461bcd60e51b81526004016105ee90612eb8565b6001600160a01b038381166000908152609a6020526040902060050154811690851614611d9e5760405162461bcd60e51b81526004016105ee90612ef9565b6001600160a01b0385166000908152609a60205260409020600181015480881115611e225760405162461bcd60e51b815260206004820152602e60248201527f21776974686472617746756e647346726f6d4368696c643a20616d6f756e742060448201526d3e206368696c6442616c616e636560901b60648201526084016105ee565b87611e2b578097505b87826001016000828254611e3f9190612f3b565b90915550611e819050611e50612462565b6001600160a01b0389166000908152609a6020526040902060060154609880548c9290811061091a5761091a612e71565b866001600160a01b0316611e93612462565b6001600160a01b03167fe9171aeff46c37ab955b8aff908e14ae9732bd06634fa131226cfe5c25bfd2fb8a604051611ecd91815260200190565b60405180910390a35050505050505050565b611ee7612462565b826001600160a01b038116611f0e5760405162461bcd60e51b81526004016105ee90612dfb565b6001600160a01b038116611f345760405162461bcd60e51b81526004016105ee90612e30565b6001600160a01b038216600090815260996020526040812054815b81811015611fbc576001600160a01b03858116600090815260996020526040902080549186169183908110611f8657611f86612e71565b6000918252602090912001546001600160a01b03161415611faa5760019250611fbc565b80611fb481612e9d565b915050611f4f565b50600182151514611fdf5760405162461bcd60e51b81526004016105ee90612eb8565b6001600160a01b038381166000908152609a602052604090206005015481169085161461201e5760405162461bcd60e51b81526004016105ee90612ef9565b612079612029612462565b6001600160a01b0388166000908152609a60205260409020600601546098805430928a9291811061205c5761205c612e71565b6000918252602090912001546001600160a01b031692919061261a565b6001600160a01b0386166000908152609a6020526040812060010180548792906120a4908490613006565b90915550506001600160a01b0386166120bb612462565b6001600160a01b03167f51c280b8ead4e2136d2f038ca132c390a056c89a71411b134217209d3b9eccf842886040516120fe929190918252602082015260400190565b60405180910390a3505050505050565b612116612462565b836001600160a01b03811661213d5760405162461bcd60e51b81526004016105ee90612dfb565b6001600160a01b0381166121635760405162461bcd60e51b81526004016105ee90612e30565b6001600160a01b038216600090815260996020526040812054815b818110156121eb576001600160a01b038581166000908152609960205260409020805491861691839081106121b5576121b5612e71565b6000918252602090912001546001600160a01b031614156121d957600192506121eb565b806121e381612e9d565b91505061217e565b5060018215151461220e5760405162461bcd60e51b81526004016105ee90612eb8565b6001600160a01b038381166000908152609a602052604090206005015481169085161461224d5760405162461bcd60e51b81526004016105ee90612ef9565b6001600160a01b0387166000908152609a60205260409020856122c15760405162461bcd60e51b815260206004820152602660248201527f216368616e6765436f6e6669673a20706572696f6469636974792063616e6e6f60448201526507420626520360d41b60648201526084016105ee565b600281018790556004810186905580546040805160ff90921615158252602082018990526001600160a01b038a16917fcfaf6bc5c9fd62f4270a1249386d53b1bcbec1d17088280f29fb14fcb2099ab4910160405180910390a25050505050505050565b61232d61254f565b606580546001600160a01b0319166001600160a01b0392909216919091179055565b60005b609b548110156123dc5760006001600160a01b0316609b828154811061237a5761237a612e71565b6000918252602090912001546001600160a01b0316141561239a576123ca565b6123ca609b82815481106123b0576123b0612e71565b6000918252602090912001546001600160a01b0316612658565b806123d481612e9d565b915050612352565b506115c5609b6000612b7a565b6123f161254f565b6001600160a01b0381166124565760405162461bcd60e51b815260206004820152602660248201527f4f776e61626c653a206e6577206f776e657220697320746865207a65726f206160448201526564647265737360d01b60648201526084016105ee565b61245f816125c8565b50565b600061246c6128f3565b905090565b6040516001600160a01b03831660248201526044810182905261107790849063a9059cbb60e01b906064015b60408051601f198184030181529190526020810180516001600160e01b03166001600160e01b03199093169290921790915261291b565b600054610100900460ff1661253f5760405162461bcd60e51b815260206004820152602b60248201527f496e697469616c697a61626c653a20636f6e7472616374206973206e6f74206960448201526a6e697469616c697a696e6760a81b60648201526084016105ee565b6115c561254a612462565b6125c8565b612557612462565b6001600160a01b03166125726033546001600160a01b031690565b6001600160a01b0316146115c55760405162461bcd60e51b815260206004820181905260248201527f4f776e61626c653a2063616c6c6572206973206e6f7420746865206f776e657260448201526064016105ee565b603380546001600160a01b038381166001600160a01b0319831681179093556040519116919082907f8be0079c531659141344cd1fd0a4f28419497f9722a3daafe3b4186f6b6457e090600090a35050565b6040516001600160a01b03808516602483015283166044820152606481018290526126529085906323b872dd60e01b9060840161249d565b50505050565b6001600160a01b038082166000908152609a60209081526040808320815160e081018352815460ff16151581526001820154818501526002820154818401526003820154606082015260048201546080820152600582015490951660a0860181905260069091015460c086015283526099909152812054905b818110156128275760a08301516001600160a01b0390811660009081526099602052604090208054918616918390811061270d5761270d612e71565b6000918252602090912001546001600160a01b031614156128155760a08301516001600160a01b0316600090815260996020526040902061274f600184612f3b565b8154811061275f5761275f612e71565b600091825260208083209091015460a08601516001600160a01b039081168452609990925260409092208054919092169190839081106127a1576127a1612e71565b600091825260208083209190910180546001600160a01b0319166001600160a01b0394851617905560a086015190921681526099909152604090206127e7600184612f3b565b815481106127f7576127f7612e71565b600091825260209091200180546001600160a01b0319169055612827565b8061281f81612e9d565b9150506126d1565b50612869612833612462565b6001600160a01b0385166000908152609a602052604090206001015460c085015160988054909190811061091a5761091a612e71565b6001600160a01b038084166000818152609a6020526040808220805460ff19168155600181018390556002810183905560038101839055600481018390556005810180546001600160a01b031916905560060182905560a08601519051929316917fd5987086ef0ea0ec23ef7cd2dc39a293271a5501e3b5e05db7ef8b7771fe71739190a3505050565b6065546000906001600160a01b0316331415612916575060131936013560601c90565b503390565b6000612970826040518060400160405280602081526020017f5361666545524332303a206c6f772d6c6576656c2063616c6c206661696c6564815250856001600160a01b03166129ed9092919063ffffffff16565b805190915015611077578080602001905181019061298e919061301e565b6110775760405162461bcd60e51b815260206004820152602a60248201527f5361666545524332303a204552433230206f7065726174696f6e20646964206e6044820152691bdd081cdd58d8d9595960b21b60648201526084016105ee565b60606129fc8484600085612a04565b949350505050565b606082471015612a655760405162461bcd60e51b815260206004820152602660248201527f416464726573733a20696e73756666696369656e742062616c616e636520666f6044820152651c8818d85b1b60d21b60648201526084016105ee565b600080866001600160a01b03168587604051612a819190613067565b60006040518083038185875af1925050503d8060008114612abe576040519150601f19603f3d011682016040523d82523d6000602084013e612ac3565b606091505b5091509150612ad487838387612adf565b979650505050505050565b60608315612b4b578251612b44576001600160a01b0385163b612b445760405162461bcd60e51b815260206004820152601d60248201527f416464726573733a2063616c6c20746f206e6f6e2d636f6e747261637400000060448201526064016105ee565b50816129fc565b6129fc8383815115612b605781518083602001fd5b8060405162461bcd60e51b81526004016105ee9190613083565b508054600082559060005260206000209081019061245f91905b80821115612ba85760008155600101612b94565b5090565b600060208284031215612bbe57600080fd5b5035919050565b80356001600160a01b0381168114612bdc57600080fd5b919050565b600060208284031215612bf357600080fd5b612bfc82612bc5565b9392505050565b600060608284031215612c1557600080fd5b50919050565b60008060808385031215612c2e57600080fd5b612c3783612bc5565b9150612c468460208501612c03565b90509250929050565b60008060408385031215612c6257600080fd5b612c6b83612bc5565b946020939093013593505050565b60008060408385031215612c8c57600080fd5b612c9583612bc5565b9150612c4660208401612bc5565b803560ff81168114612bdc57600080fd5b60008060008060008060c08789031215612ccd57600080fd5b612cd687612bc5565b95506020870135945060408701359350612cf260608801612ca3565b92506080870135915060a087013590509295509295509295565b6000806000806000806000610120888a031215612d2857600080fd5b612d3188612bc5565b9650612d408960208a01612c03565b95506080880135945060a08801359350612d5c60c08901612ca3565b925060e08801359150610100880135905092959891949750929550565b801515811461245f57600080fd5b60008060408385031215612d9a57600080fd5b8235612c9581612d79565b60008060408385031215612db857600080fd5b82359150612c4660208401612bc5565b600080600060608486031215612ddd57600080fd5b612de684612bc5565b95602085013595506040909401359392505050565b6020808252818101527f215f61726552656c617465643a206e756c6c206368696c642061646472657373604082015260600190565b60208082526021908201527f215f61726552656c617465643a206e756c6c20706172656e74206164647265736040820152607360f81b606082015260800190565b634e487b7160e01b600052603260045260246000fd5b634e487b7160e01b600052601160045260246000fd5b6000600019821415612eb157612eb1612e87565b5060010190565b60208082526021908201527f215f61726552656c617465643a206368696c6420646f65736e2774206d6174636040820152600d60fb1b606082015260800190565b60208082526022908201527f215f61726552656c617465643a20706172656e7420646f65736e2774206d61746040820152610c6d60f31b606082015260800190565b600082821015612f4d57612f4d612e87565b500390565b60008083128015600160ff1b850184121615612f7057612f70612e87565b6001600160ff1b0384018313811615612f8b57612f8b612e87565b50500390565b634e487b7160e01b600052603160045260246000fd5b6000600160ff1b821415612fbd57612fbd612e87565b506000190190565b600082612fe257634e487b7160e01b600052601260045260246000fd5b500490565b600081600019048311821515161561300157613001612e87565b500290565b6000821982111561301957613019612e87565b500190565b60006020828403121561303057600080fd5b8151612bfc81612d79565b60005b8381101561305657818101518382015260200161303e565b838111156126525750506000910152565b6000825161307981846020870161303b565b9190910192915050565b60208152600082518060208401526130a281604085016020870161303b565b601f01601f1916919091016040019291505056fea264697066735822122086b9f56304c34aa2deec56f9a348fd56e4323b8174c6023fe24b3c205381860f64736f6c63430008090033",
  "devdoc": {
    "author": "Guillaume Dupont, Sami Darnaud",
    "custom:experimental": "This is an experimental contract. It should not be used in production.",
    "kind": "dev",
    "methods": {
      "addChild(address,(uint256,uint256,uint256))": {
        "params": {
          "child": "is the address of the child.",
          "config": "contains various element of the config: periodicity, indexToken and ceiling"
        }
      },
      "addChildAndFundsPermit(address,(uint256,uint256,uint256),uint256,uint256,uint8,bytes32,bytes32)": {
        "params": {
          "amount": "is the number of tokens that the child's account should be credited.",
          "child": "is the address of the child."
        }
      },
      "addFunds(address,uint256)": {
        "params": {
          "amount": "is the amount of tokens to add.",
          "child": "is the address of the child."
        }
      },
      "addFundsPermit(address,uint256,uint256,uint8,bytes32,bytes32)": {
        "params": {
          "amount": "is the amount of tokens to add.",
          "child": "is the address of the child."
        }
      },
      "changeChildAddress(address,address)": {
        "params": {
          "newAddr": "is the new address of your child.",
          "oldAddr": "is the previous address of your child."
        }
      },
      "changeConfig(address,uint256,uint256)": {
        "params": {
          "ceiling": "is the amount of token the child can claim.",
          "child": "is the address of the child.",
          "periodicity": "is the time that must pass between each claim, in seconds."
        }
      },
      "changeParentAddr(address)": {
        "params": {
          "newAddr": "is the address of the child."
        }
      },
      "computeClaimable(address)": {
        "details": "Computes the amount of token the child can claim.",
        "params": {
          "child": "is the child for which we compute the claimable amount."
        }
      },
      "constructor": {
        "custom:oz-upgrades-unsafe-allow": "constructor"
      },
      "getNumberChildren(address)": {
        "params": {
          "parent": "The address of the parent account"
        },
        "returns": {
          "_0": "childNb as a uint256."
        }
      },
      "owner()": {
        "details": "Returns the address of the current owner."
      },
      "removeChild(address)": {
        "details": "This function properly updates the parentToChildren array by removing the address of the child and making sure there is no gap inside the array.",
        "params": {
          "child": "is the address of the child."
        }
      },
      "renounceOwnership()": {
        "details": "Leaves the contract without owner. It will not be possible to call `onlyOwner` functions anymore. Can only be called by the current owner. NOTE: Renouncing ownership will leave the contract without an owner, thereby removing any functionality that is only available to the owner."
      },
      "setActive(bool,address)": {
        "params": {
          "active": "the future value of conf.active.",
          "child": "the child to activate or desactivate the account."
        }
      },
      "transferOwnership(address)": {
        "details": "Transfers ownership of the contract to a new account (`newOwner`). Can only be called by the current owner."
      },
      "withdrawFundsFromChild(uint256,address)": {
        "params": {
          "amount": "is the amount of tokens to withdraw.",
          "child": "is the address of the child."
        }
      }
    },
    "title": "A pocket money faucet",
    "version": 1
  },
  "userdoc": {
    "kind": "user",
    "methods": {
      "addChild(address,(uint256,uint256,uint256))": {
        "notice": "Add a child to a parent address"
      },
      "addChildAndFundsPermit(address,(uint256,uint256,uint256),uint256,uint256,uint8,bytes32,bytes32)": {
        "notice": "Add a child to a parent address + add funds to the child account."
      },
      "addFunds(address,uint256)": {
        "notice": "Add `amount` to your child `child` account."
      },
      "addFundsPermit(address,uint256,uint256,uint8,bytes32,bytes32)": {
        "notice": "Add `amount` to your child `child` account."
      },
      "changeChildAddress(address,address)": {
        "notice": "This will change your child address: `oldAddr` is now `newAddr`."
      },
      "changeConfig(address,uint256,uint256)": {
        "notice": "This will set your child: `child` config to the following values: ceiling: `ceiling`, periodicity: `periodicity`."
      },
      "changeParentAddr(address)": {
        "notice": "You will change your address from `_msgSender()` to `newAddr`"
      },
      "claim()": {
        "notice": "You will receive the pocket money your parent deposited for you."
      },
      "getNumberChildren(address)": {
        "notice": "This returns the number of children asssociated to an address"
      },
      "removeChild(address)": {
        "notice": "Removes `child` from your account and transfers all the founds associated to him to your address."
      },
      "setActive(bool,address)": {
        "notice": "This transaction will set the active variable to `active`. If the value is false, your child: `child` won't be able to claim anymore."
      },
      "withdrawFundsFromChild(uint256,address)": {
        "notice": "You will withdraw `amount` from your child account `child`. If amount is 0, it will wihdraw all its balance."
      }
    },
    "version": 1
  },
  "storageLayout": {
    "storage": [
      {
        "astId": 740,
        "contract": "contracts/PocketFaucet.sol:PocketFaucet",
        "label": "_initialized",
        "offset": 0,
        "slot": "0",
        "type": "t_uint8"
      },
      {
        "astId": 743,
        "contract": "contracts/PocketFaucet.sol:PocketFaucet",
        "label": "_initializing",
        "offset": 1,
        "slot": "0",
        "type": "t_bool"
      },
      {
        "astId": 1647,
        "contract": "contracts/PocketFaucet.sol:PocketFaucet",
        "label": "__gap",
        "offset": 0,
        "slot": "1",
        "type": "t_array(t_uint256)50_storage"
      },
      {
        "astId": 612,
        "contract": "contracts/PocketFaucet.sol:PocketFaucet",
        "label": "_owner",
        "offset": 0,
        "slot": "51",
        "type": "t_address"
      },
      {
        "astId": 732,
        "contract": "contracts/PocketFaucet.sol:PocketFaucet",
        "label": "__gap",
        "offset": 0,
        "slot": "52",
        "type": "t_array(t_uint256)49_storage"
      },
      {
        "astId": 4600,
        "contract": "contracts/PocketFaucet.sol:PocketFaucet",
        "label": "_trustedForwarder",
        "offset": 0,
        "slot": "101",
        "type": "t_address"
      },
      {
        "astId": 4674,
        "contract": "contracts/PocketFaucet.sol:PocketFaucet",
        "label": "__gap",
        "offset": 0,
        "slot": "102",
        "type": "t_array(t_uint256)50_storage"
      },
      {
        "astId": 4695,
        "contract": "contracts/PocketFaucet.sol:PocketFaucet",
        "label": "baseTokens",
        "offset": 0,
        "slot": "152",
        "type": "t_array(t_address)dyn_storage"
      },
      {
        "astId": 4700,
        "contract": "contracts/PocketFaucet.sol:PocketFaucet",
        "label": "parentToChildren",
        "offset": 0,
        "slot": "153",
        "type": "t_mapping(t_address,t_array(t_address)dyn_storage)"
      },
      {
        "astId": 4705,
        "contract": "contracts/PocketFaucet.sol:PocketFaucet",
        "label": "childToConfig",
        "offset": 0,
        "slot": "154",
        "type": "t_mapping(t_address,t_struct(Config)4788_storage)"
      },
      {
        "astId": 4956,
        "contract": "contracts/PocketFaucet.sol:PocketFaucet",
        "label": "childrenList",
        "offset": 0,
        "slot": "155",
        "type": "t_array(t_address)dyn_storage"
      }
    ],
    "types": {
      "t_address": {
        "encoding": "inplace",
        "label": "address",
        "numberOfBytes": "20"
      },
      "t_array(t_address)dyn_storage": {
        "base": "t_address",
        "encoding": "dynamic_array",
        "label": "address[]",
        "numberOfBytes": "32"
      },
      "t_array(t_uint256)49_storage": {
        "base": "t_uint256",
        "encoding": "inplace",
        "label": "uint256[49]",
        "numberOfBytes": "1568"
      },
      "t_array(t_uint256)50_storage": {
        "base": "t_uint256",
        "encoding": "inplace",
        "label": "uint256[50]",
        "numberOfBytes": "1600"
      },
      "t_bool": {
        "encoding": "inplace",
        "label": "bool",
        "numberOfBytes": "1"
      },
      "t_mapping(t_address,t_array(t_address)dyn_storage)": {
        "encoding": "mapping",
        "key": "t_address",
        "label": "mapping(address => address[])",
        "numberOfBytes": "32",
        "value": "t_array(t_address)dyn_storage"
      },
      "t_mapping(t_address,t_struct(Config)4788_storage)": {
        "encoding": "mapping",
        "key": "t_address",
        "label": "mapping(address => struct PocketFaucet.Config)",
        "numberOfBytes": "32",
        "value": "t_struct(Config)4788_storage"
      },
      "t_struct(Config)4788_storage": {
        "encoding": "inplace",
        "label": "struct PocketFaucet.Config",
        "members": [
          {
            "astId": 4775,
            "contract": "contracts/PocketFaucet.sol:PocketFaucet",
            "label": "active",
            "offset": 0,
            "slot": "0",
            "type": "t_bool"
          },
          {
            "astId": 4777,
            "contract": "contracts/PocketFaucet.sol:PocketFaucet",
            "label": "balance",
            "offset": 0,
            "slot": "1",
            "type": "t_uint256"
          },
          {
            "astId": 4779,
            "contract": "contracts/PocketFaucet.sol:PocketFaucet",
            "label": "ceiling",
            "offset": 0,
            "slot": "2",
            "type": "t_uint256"
          },
          {
            "astId": 4781,
            "contract": "contracts/PocketFaucet.sol:PocketFaucet",
            "label": "lastClaim",
            "offset": 0,
            "slot": "3",
            "type": "t_uint256"
          },
          {
            "astId": 4783,
            "contract": "contracts/PocketFaucet.sol:PocketFaucet",
            "label": "periodicity",
            "offset": 0,
            "slot": "4",
            "type": "t_uint256"
          },
          {
            "astId": 4785,
            "contract": "contracts/PocketFaucet.sol:PocketFaucet",
            "label": "parent",
            "offset": 0,
            "slot": "5",
            "type": "t_address"
          },
          {
            "astId": 4787,
            "contract": "contracts/PocketFaucet.sol:PocketFaucet",
            "label": "tokenIndex",
            "offset": 0,
            "slot": "6",
            "type": "t_uint256"
          }
        ],
        "numberOfBytes": "224"
      },
      "t_uint256": {
        "encoding": "inplace",
        "label": "uint256",
        "numberOfBytes": "32"
      },
      "t_uint8": {
        "encoding": "inplace",
        "label": "uint8",
        "numberOfBytes": "1"
      }
    }
  }
}